:020000040800F2
:1000000048040020697C0008217B0008237B00084D
:10001000257B0008277B0008297B000800000000E2
:100020000000000000000000000000002B7B000822
:100030002D7B0008000000002F7B0008317B0008AA
:100040008D7C0008917C0008957C0008997C000854
:100050009D7C0008A17C0008A57C0008A97C000804
:10006000AD7C0008B17C0008B57C0008B97C0008B4
:10007000BD7C00083F7B0008C17C0008C57C0008EF
:10008000C97C0008CD7C0008D17C0008D57C000824
:10009000D97C0008DD7C0008E17C0008E57C0008D4
:1000A000E97C0008ED7C0008F17C0008F57C000884
:1000B000F97C0008FD7C0008017D0008057D000832
:1000C000097D00080D7D0008117D0008157D0008E0
:1000D000197D00081D7D0008217D00084F7B000868
:1000E000257D0008297D00082D7D00084FF4E07271
:1000F00010440268914203D343681A44914202D3E8
:1001000080680028F5D17047DFF85C07016891B975
:100110004FF4803181604FF4805141604FF0FF31E6
:10012000C16001610421DFF844274161C2F8BC11BC
:10013000DFF83C1701600120704701F1080313F05C
:10014000070305D001F10803C3F1080303F0070317
:100150001944D21A8161C26042F001034B6011441C
:1001600028234B60DFF800170969C16170472DE94A
:10017000F84F064601F1080010F0070008BF884656
:1001800007D001F10800C0F1080000F0070001EB02
:10019000000802F1080010F0070006D002F1080084
:1001A000C0F1080000F0070002441546A5EB080066
:1001B000A0EB030908EB030B43F00300C8F80400AD
:1001C000AB4528BF01F00CFA2879C00758BF01F0F1
:1001D00007FAB9F1100F38BF01F002FAB069854291
:1001E00009D1F0684844F060C6F818B040F001004A
:1001F000CBF8040070E1706985420BD1B0684844C7
:10020000B060C6F814B040F00101CBF804104BF810
:10021000000061E1686800F00301012940F0AF804F
:10022000C008C0000190C00820283BD2D5F808A023
:10023000EF680090BD4208BF01F0D2F9554508BFF4
:1002400001F0CEF968680099C008C000B0EBC10F9A
:1002500018BF01F0C5F9009806EBC00000F12801B5
:100260008A4508D031698A45C0F08480DAF80C10DC
:10027000A94240F07F80574506D1009A306801219D
:1002800091408843306077E02830874205D030695C
:1002900087426FD3B868A8426CD1CAF80C70C7F80F
:1002A00008A069E0EF68D5F818A0AF420CD0A868A4
:1002B0003169884223D3C168A94204BFB968A94201
:1002C0001DD1C760B8601CE005F11400076837B99C
:1002D00005F110000768A7B101E00846076807F1BB
:1002E00014010A68002A02BF07F110010A68002AF7
:1002F000F3D13169884202D30021016001E001F0AD
:100300006FF9BAF1000F37D0E86906EB80004FF4BF
:100310009871084401688D4208D10760A7B9EA695D
:100320007068012191408843706025E03069824502
:1003300008D3DAF81000A84214BFCAF81470CAF83B
:10034000107001E001F04CF9B7B13069874211D368
:10035000C7F818A0296929B1814226BF39618F6188
:1003600001F03EF9686938B13169884202D3786199
:10037000876101E001F034F901980544814468681F
:100380004008400068604FEAD90549F00100CBF809
:1003900004004BF80990202D23D206EBC50000F194
:1003A0002807BA46B9F1100F38BF01F019F93068C3
:1003B00020FA05F1C90704D40121A940084330609F
:1003C00006E0B868316988422CBF824601F008F91E
:1003D000C7F808B0CAF80CB0CBF808A0CBF80C707E
:1003E0007AE05FEA192108BF002023D0B1F5803FF1
:1003F00028BF1F201ED2A1F58070000C00F008005D
:100400008140A1F58052120C02F004029140A1F546
:1004100080431B0CC0F10E0003F00203801AC01AC7
:10042000994000EBD130C11D29FA01F202F001011F
:1004300001EB400006EB80014FF498721144CBF8B9
:100440001C000022CBF81420CBF81020726822FA8E
:1004500000F3DB0707D4012303FA00F010437060B8
:10046000C1F800B01DE009681F281DBF4008C0F199
:10047000190009FA00F0484600E011464A68D2081F
:10048000D2004A4514D0C20F01EB820202F11003E0
:1004900040001A68002AF0D1306983421AD3C3F8A9
:1004A00000B0CBF81810CBF80CB0CBF808B013E0C4
:1004B00032698868914228BF90420BD3C0F80CB0D3
:1004C000C1F808B0CBF80800CBF80C100020CBF82E
:1004D000180001E001F084F808F10800BDE8E68F9B
:1004E0002DE9FA4D0546DFF88003006882B008B9AF
:1004F000FFF70AFEDFF870030299806841182F3178
:10050000401E21EA00000299814280F0A9814FF447
:10051000D8716E18B16839B132688018824280F0A3
:100520009F818142C0F09C8101F05EF800281EBFCF
:100530000446D0F8008014F1010F00F0918130687A
:10054000716840448142306038BF01467160A869DB
:1005500080BB286908B1844200D22C610020F06180
:100560003461C6F8148005F12801BF48006868624C
:100570004FF0FF3028620020C960896001F1080255
:100580004A610A61801C10312028F5D3B7488542A2
:1005900003D1A8F1280221462AE055F8040CC0082E
:1005A00005EBC000A0F1080104EB0800401AA0F11F
:1005B00028021DE04FF4E0702918084600E080682A
:1005C000D0B1026843681A449442F8D1027B120702
:1005D00012D4AA6903689A420ED347683B449A42F0
:1005E0000AD208EB07014160E868A96908EB00023C
:1005F0002846FFF7A2FD1DE128698442084638BF5E
:100600002C6104EB080100E0806880B102688A4236
:10061000FAD1017B09070AD4046041684144416072
:100620002146029B284604B0BDE8F04D9FE5AF6926
:1006300039462846FFF75AFD4FF0000B0168406825
:1006400008440190273810F0070101990EBF0020DF
:10065000C0F1080000F0070008442F3807F110012E
:10066000884234BF00970090009804F1080100F11F
:10067000180A11F00701A8F1280005D004F10801BB
:10068000C1F1080101F00701401A2144A961E860A5
:1006900040F001024A600844282242607248006922
:1006A000E8610098083010F0070018BF00F098FFCC
:1006B00000991B2048604FF4E0712944B1E80C50C8
:1006C00000980830A0E80C503461C6F81480C6F8D1
:1006D0001CB000980830B061019801E00AF1040AEA
:1006E0000721CAF804100BF1010B0AF1080181423D
:1006F000F4D3BBF1020FB8BF00F072FF0098B8420C
:1007000000F09880C01B3918C4084A68520852008B
:100710004A6040F0010179603850202C20D205EB6E
:10072000C40101F12806B046102838BF00F058FF78
:10073000286820FA04F1C90704D40121A140084324
:10074000286006E0B068296988422CBF804600F026
:1007500047FFB760C8F80C70C7F80880FE6069E012
:10076000010A23D0B1F5803F28BF1F211ED2A1F579
:100770008072120C02F008029140A1F580531B0C0C
:1007800003F004039940A1F58044240CC2F10E0249
:1007900004F00204D21A121BA14002EBD131CA1D8F
:1007A00020FA02F303F0010202EB410105EB8102A2
:1007B0004FF498731A44F96100237B613B616B68C5
:1007C00023FA01F4E40705D4012088401843686047
:1007D00017601CE012681F291DBF4908C1F11901EB
:1007E00000FA01F1014600E01A465368DB08DB001D
:1007F000834210D0CB0F02EB830303F110044900B6
:100800002368002BF0D12869844211D32760BA6194
:10081000FF60BF600EE0296990688A4228BF884265
:1008200006D3C7609760B860FA600020B86101E045
:1008300000F0D6FEE8680299814211D2401AE860C1
:10084000A969029A0A44AA6140F001005060029826
:1008500040F00300486004B001F10800BDE8F08DED
:10086000002004B0BDE8F08D8C0E0020080A0020A6
:100870006859883C2DE9F84F0446002689465FEA0E
:100880001920C9F1000B08BF002123D0B0F5803F2B
:1008900028BF1F211ED2A0F58071090C01F00801AC
:1008A0008840A0F58052120C02F004029040A0F59E
:1008B00080431B0CC1F10E0103F00203891AC91A0F
:1008C000984001EBD030C11D29FA01F202F001017C
:1008D00001EB400104EB8100D0F8300118B31F296F
:1008E0000FBF4A464A08C2F1190209FA02F2002370
:1008F00000E052004568ED08ED00A5EB09055D45F7
:1009000003D25FEA050B06460BD04569D70F00EB13
:100910008700002D00691CBF85422B460028E8D1C6
:100920001846B8BBC6BB012088404000414208437E
:100930006168084000F05D8141420840401E010BA3
:1009400001F01001C840420902F00802D0408308BB
:1009500003F00403D840450805F002055118E840AB
:100960005918C0F3400729443944F840401804EBB3
:100970008000D0F830010DE008464168C908C90080
:10098000A1EB090159453CBF8B4606460169002988
:10099000F2D140690028F0D1002E00F02A81A06831
:1009A000A0EB0900834580F0248120698642C0F0D5
:1009B0001E817068C00809EB0B08C000404518BFD5
:1009C00000F00EFE06EB0905AE4280F01081F768DC
:1009D000D6F818A0B7420CD0B0682169884223D35A
:1009E000C168B14204BFB968B1421DD1C760B860E7
:1009F0001CE006F11400076837B906F1100007681B
:100A0000A7B101E00846076807F114010A68002A47
:100A100002BF07F110010A68002AF3D12169884258
:100A200002D30021016001E000F0DAFDBAF1000F0D
:100A300039D0F06904EB80004FF4987108440168E4
:100A40008E4209D10760380014D1F2696068012133
:100A500091408843606026E02069824508D3DAF837
:100A60001000B04214BFCAF81470CAF8107001E048
:100A700000F0B6FDBFB12069874212D3C7F818A0B5
:100A8000306930B12169884226BF3861876100F042
:100A9000A7FD706938B12169884202D37861876106
:100AA00001E000F09DFDBBF1100F09D248F00300FA
:100AB000706006EB0800416841F00101416095E07B
:100AC00049F0030070604BF0010068604FEADB0002
:100AD00045F80BB020281DD204EBC00101F1280716
:100AE000216821FA00F2D207BB4605D4012202FA9E
:100AF00000F00843206006E0B868216988422CBFF6
:100B0000834600F06DFDBD60CBF80C50C5F808B011
:100B1000EF606BE05FEA1B2023D0B0F5803F28BF79
:100B20001F201ED2A0F58071090C01F00801884039
:100B3000A0F58052120C02F004029040A0F5804310
:100B40001B0CC1F10E0103F00203891AC91A984067
:100B500001EBD030C11D2BFA01F202F0010101EBD3
:100B6000400004EB80014FF498721144E8610022C8
:100B70006A612A61626822FA00F3DB0706D4012366
:100B800003FA00F0104360600D601CE009681F2844
:100B90001DBF4008C0F119000BFA00F0584600E0F4
:100BA00011464A68D208D2005A4510D0C20F01EB54
:100BB000820202F1100340001A68002AF0D1206975
:100BC000834211D31D60A961ED60AD600EE0226922
:100BD0008868914228BF904206D3C5608D60A860A6
:100BE000E9600020A86101E000F0FAFC08E100F0F3
:100BF000F7FC02E12DE9F84F04468846606841425F
:100C00000840401E010B01F01001C840420902F0EB
:100C10000802D040830803F00403D840450805F0DB
:100C200002055118E8405918C0F3400629447118CC
:100C3000F040401804EB8000D0F830014168C9084A
:100C4000C9000646A1EB080A09E008464168C90840
:100C5000C900A1EB080151453CBF8A46064601691F
:100C60000029F2D140690028F0D120698642C0F005
:100C7000C2807068C00808EB0A09C000484518BF68
:100C800000F0AEFC06EB080B5E4580F0B480F76820
:100C9000B569B7420CD0B0682169884223D3C168D6
:100CA000B14204BFB968B1421DD1C760B8601CE051
:100CB00006F11400076837B906F110000768A7B1FC
:100CC00001E00846076807F114010A68002A02BF1C
:100CD00007F110010A68002AF3D12169884202D382
:100CE0000021016001E000F07BFC002D35D0F069AF
:100CF00004EB80004FF49871084401688E4209D1DA
:100D00000760380011D1F269606801219140884381
:100D1000606022E02069854205D32869B04214BF93
:100D20006F612F6101E000F05BFCB7B12069874281
:100D300011D3BD61306930B12169884226BF386165
:100D4000876100F04DFC706938B12169884202D397
:100D50007861876101E000F043FCBAF1100F09D21D
:100D600049F00300706006EB0900416841F00101A1
:100D700041603FE048F0030070604AF00100CBF8AA
:100D800004004BF80AA0D4F808804FEAD805202DBB
:100D900028BF00F025FCB8F1000F27D0D4F814903C
:100DA000009504EBC50000F128052F46B8F1100F9F
:100DB00038BF00F015FC2068009920FA01F2D10735
:100DC00005D4009A012191400843206006E0A868FC
:100DD000216988422CBF074600F002FCC5F8089044
:100DE000C7F80C90C9F80870C9F80C50C4F808A0EE
:100DF000C4F814B004E000F0F3FB0020BDE8F28F6B
:100E000006F10800BDE8F28F2DE9F04F83B00546EA
:100E1000AFF30080F52DDFF8C04780F002810B2D85
:100E200031BF102705F10B00C708FF002068FE083E
:100E3000F04010F0030F42D0C04300F001008619CB
:100E400004EBC60000F12808F700D8F808506868DD
:100E5000C008C000B84218BF00F0C2FBD5F8089027
:100E6000454508BF00F0BCFB4D4508BF00F0B8FB8E
:100E70006868C008C000B84218BF00F0B1FBC845A0
:100E800005D120680121B140884320600DE0206930
:100E9000814508D3D9F80C00A84204D1C8F80890BD
:100EA000C9F80C8001E000F09BFB47F0030068608C
:100EB000E8190835416841F001014160F9E0A16895
:100EC000B94280F0C080002800F0A280012505FA18
:100ED00006F149004A42B0401143084041420840EF
:100EE000401E010B01F01001C840420902F0080247
:100EF000D040830803F00403D840460806F00206F9
:100F00005118F0405918C0F340087118414420FAB4
:100F100008F000EB010804EBC80000F128094FEAD3
:100F2000C80AD9F808607068C008C000504518BFEA
:100F300000F056FBD6F808B04E4508BF00F050FB55
:100F40005E4508BF00F04CFB7068C008C00050450B
:100F500018BF00F045FBD94505D1206805FA08F116
:100F6000884320600DE02069834508D3DBF80C003E
:100F7000B04204D1C9F808B0CBF80C9001E000F001
:100F80002FFB47F003007060AAEB0708F0190190EF
:100F900048F0010001994860019840F80880A7686E
:100FA0004FEAD70ABAF1200F28BF00F019FB47B368
:100FB000CDF800A004EBCA00D4F8149000F1280A80
:100FC000D346102F38BF00F00BFB2068009920FAA1
:100FD00001F2D10705D4009905FA01F10843206018
:100FE00007E0DAF80800216988422CBF834600F048
:100FF000F7FACAF80890CBF80C90C9F808B0C9F80D
:101000000CA0C4F8088006F108050198606150E062
:101010006068C0B339462046FFF7ECFD050012D0EA
:1010200047E015F1400F28BF4FF0FF370BD205F115
:101030000B00C7086068FF0028B139462046FFF75B
:1010400019FC050035D1A068B8421CD3C11B6269E8
:1010500010290AD3D0196061A16041F001034360F7
:10106000415047F0030050600AE00021A160616137
:1010700040F0030151601044416841F001014160BA
:1010800002F1080515E0E06887420DD2C01BA16996
:10109000E060CA19A26140F00100506001F108054A
:1010A00047F00300486004E039462046FFF718FA8D
:1010B0000546AFF30080284603B0BDE8F08F00B9C5
:1010C00070472DE9F047A0F10804AFF30080DFF886
:1010D000085528698442C0F07982616801F00302F2
:1010E000012A00F07382CA084FEAC208CA0704EB5B
:1010F000080937D4226811F0030F00F069825142C9
:101100000C4484429044C0F0618269698C4200F0D2
:10111000D980D608202E70D2D4F80CA0A7685445E8
:1011200008BF00F05DFABC4208BF00F059FA6068E1
:10113000C008C000B0EBC60F18BF00F051FA05EBB5
:10114000C60000F128018F4205D029698F4251D392
:10115000F968A1424ED1BA453DD128680121B1407C
:10116000884328604C4580F03182D9F80400C107DB
:1011700040F12C82810700F17D81A969894540F009
:10118000B680E868AC614044E86040F0010161600D
:1011900069698C4202D100216961A960E9698142D3
:1011A00080F01682DFF83404006808B9FEF7ACFF5F
:1011B000A969002900F00C82E868292824BF284684
:1011C000FEF794FFE869E968884280F001824FF0F9
:1011D000FF30E861FCE12830824506D0286982456D
:1011E00008D3DAF80800A04204D1C7F80CA0CAF866
:1011F0000870B7E700F0F4F9B4E7E768A669A7421A
:101200000BD0A168814222D3C868A04204BFB8684D
:10121000A0421CD1CF60B9601BE004F114010F683B
:1012200037B904F110010F689FB101E011460F6852
:1012300007F114021368002B02BF07F110021368B4
:10124000002BF3D1814202D30020086001E000F0BE
:10125000C7F9002E86D0E06905EB80004FF4987145
:10126000084401688C4209D10760380011D1E26955
:101270006868012191408843686073E72869864265
:1012800005D33069A04214BF7761376101E000F0F7
:10129000A7F9002F3FF466AF28698742AAD3BE6141
:1012A000216929B1814226BF39618F6100F098F927
:1012B000606900283FF456AF296988429AD3786163
:1012C00087614FE799F8040000F0030003287FF4DA
:1012D00049AFC5F80880D9F8040040084000C9F8B3
:1012E000040048F00100606044F8088070E169691A
:1012F000894508D1A8686C614044A86040F00101AC
:101300006160205064E1C008C0004FEAD00ABAF121
:10131000200F804437D2D9F80C70D9F80860B9454D
:1013200008BF00F05DF9B14508BF00F059F9D9F8E0
:101330000400C008C000B0EBCA0F18BF00F050F99D
:1013400005EBCA0000F128018E4207D029698E42C0
:10135000C0F08380F168494540F07F80B74206D1F4
:101360002868012101FA0AF18843286077E02830D3
:10137000874205D0286987426FD3B86848456CD149
:10138000F760BE606BE0D9F80C70D9F818604F4573
:101390000DD0D9F808002969884223D3C16849458E
:1013A00004BFB96849451DD1C760B8601CE009F1A8
:1013B0001400076837B909F110000768A7B101E008
:1013C0000846076807F114010A68002A02BF07F1FE
:1013D00010010A68002AF3D12969884202D300214A
:1013E000016001E000F0FCF8002E38D0D9F81C00B4
:1013F00005EB80004FF498710844016889450AD1D3
:101400000760380012D1D9F81C206868012191408A
:101410008843686023E02869864205D330694845DF
:1014200014BF7761376101E000F0DAF8BFB12869D5
:10143000874212D3BE61D9F8101029B1814226BF6C
:1014400039618F6100F0CCF8D9F8140038B12969FE
:10145000884202D37861876101E000F0C1F848F06A
:101460000100606044F80880686984420BD1C5F8C7
:101470000880ADE040084000C9F8040048F00100D1
:10148000606044F808804FEAD807202F22D205EB8D
:10149000C70000F128094E46B8F1100F38BF00F020
:1014A0009FF8286820FA07F1C90704D40121B94040
:1014B0000843286007E0D9F80800296988422CBF52
:1014C000064600F08DF8C9F80840F460A660C4F83C
:1014D0000C907DE05FEA182008BF002123D0B0F512
:1014E000803F28BF1F211ED2A0F58071090C01F09A
:1014F00008018840A0F58052120C02F004029040CE
:10150000A0F580431B0CC1F10E0103F00203891A00
:10151000C91A984001EBD030C11D28FA01F202F03F
:10152000010101EB400105EB81004FF4987210447A
:10153000002262612261E1616A6822FA01F3DB073D
:1015400006D4012303FA01F11143696004601CE031
:1015500000681F291DBF4908C1F1190108FA01F1EE
:10156000414600E010464268D208D200424510D001
:10157000CA0F00EB820202F1100349001A68002A28
:10158000F0D129698B4211D31C60A061E460A46092
:101590000EE02A698168904228BF914206D3CC6050
:1015A0008460E060A1600020A06101E000F018F814
:1015B000286A401E28620BD1D5F8C80100E0806877
:1015C0000028FCD14FF0FF30286201E000F008F85D
:1015D000AFF30080BDE8F087080A00208C0E0020E1
:1015E000012000F017B800000749086808B1002082
:1015F00070470648C008C00008600549C908C9000E
:10160000091A0160704700BFD80E00204F04002067
:101610004806002080B5AFF30080024A1100182070
:10162000ABBEFBE72600020038B5040014D004F17D
:101630003C05687818B92870204600F026FC00F0B8
:1016400063F800F032FF6268DFF808118A4205D2C1
:10165000DFF80421904205D2012032BDDFF8FC20E2
:101660009042F9D32368DFF8F820B0FBF2F25A6019
:1016700063688B4206D34FF496735A434FF47A73E0
:10168000B2FBF3F22368521C1A62401E62688A425F
:1016900006D2510000F032F8042813D2042011E0E1
:1016A000A16821B902EB420100F028F805E01921F8
:1016B000514300F023F840F4804001050CBF0120A5
:1016C00040F400402168C861E069216A084321684C
:1016D00008602069E1680843216888606069A16941
:1016E00008432168C860206800F0D6F900206860CF
:1016F0002020687000202063A87032BDB0FBF1F09C
:10170000401CC0F30B0070472420687020680168FB
:101710004908490001607047009519230122DFF84C
:101720001411704732462946204600F052BB606AC9
:10173000411C6162216809690170704740F4806052
:101740000860002000902068416900918069009045
:1017500070470000A186010080841E0000093D0042
:1017600040420F002DE9FC4700F024F900F064F836
:1017700052D1FFF7D1FF00F0AFF900284CD13078FB
:10178000012849D00120307000F05BF921207070F1
:101790004A464020B0704146002070600A9860625E
:1017A0000B98608500F040F80C9F0195009700F0C1
:1017B000A3F978B17068042802D10020307024E0C9
:1017C0000020307023E0606A421C62620078086189
:1017D00000F042F8208D80B12A46394600F0D2F957
:1017E00070B9606A411C616221680078086100F08C
:1017F00029F8EFD580B20028E5D100F010F840B10B
:101800007068042803D100F06AF9012005E0032084
:1018100003E000F028F800E00220BDE8F6872A4641
:101820003946204600F0AEBA9748E062608D2085C8
:10183000204670470200100004F13C06054670780F
:1018400020287047208D401E2085618D491E6185AE
:1018500021684A6952077047208D401E2085608D9F
:10186000401E608570472068016841F40071016086
:10187000202070700020B070307070472DE9FC4758
:1018800000F098F800F08BF87AD10096FFF745FF4A
:1018900000F022F9002873D13878012870D0012097
:1018A000387000F0CEF8222078704A464020B87098
:1018B000414600F0EBF800F078F8608D2085019645
:1018C00020460C9D009500F05FF940B1786804282F
:1018D00002D10020387048E00020387043E0208DAD
:1018E000010002D100F0A1F814E02168012802D122
:1018F00000F08BF804E00228086804D100F076F8C4
:10190000016062B606E0FFF719FF03E0FFF70FFF83
:10191000FFF7A2FF208D01002FD004281DD201283F
:1019200004D1FFF7FFFE0028F0D019E000F031F8F5
:1019300009D10022414600F0CFF8002813D172B639
:1019400000F08EF8E2E70022414600F0C5F80028DA
:1019500009D100F0ABF830B9F2E7FFF7E3FE30B1A0
:101960007868202801D103200BE0012009E000F075
:101970002DF8CFD500F007F8CAE700F021F800E015
:101980000220BDE8F687616A4A1C6262006908703D
:1019900070470228DFF8548100962B46704704F107
:1019A0003C07064678782028704760853648E06214
:1019B000704700000446884691469A4600F0A8BD4C
:1019C000202078700020B87038707047606A411C21
:1019D0006162216809690170208D401E2085608D3B
:1019E000401E6085206841694907704740F40060E7
:1019F000086072B6002000902068416900918169FA
:101A00000091016821F480617047086820F48060CB
:101A1000086072B6002000902068416900918169D9
:101A20000091016841F40071704700200090206827
:101A30004169009181690091016841F40071016080
:101A4000704720680168C90703D4016841F00101AB
:101A5000016053462068016821F40061016070470D
:101A60002068016841F400710160606A411C616294
:101A7000216809690170208D401E2085608D401EFF
:101A8000608562B6704700000000FFFF00207860AC
:101A90000A9860620B987047016841F0010101608B
:101AA0007047016841F40071016070472068016867
:101AB00021F48061016072B62B46606A411C61624C
:101AC00000222168096901704146208D401E208551
:101AD000608D401E60850096204600F0CDB82068DD
:101AE000016841F4007101607047000004000100CA
:101AF00020684169009170472DE9F8430446894602
:101B000000F038F8089E099F1546984600F09EF8A8
:101B1000FFF7E2FF30BB216809F0FE00086100F02A
:101B2000A3F818B1206C04281CD119E000903A46A3
:101B3000FFF7DEFF31468069009000F023F850B9CE
:101B4000B8F1010F10D02168280A08613A463146E1
:101B500000F018F840B1206C042803D1FFF7BFFF54
:101B6000012005E0032003E02068EDB205610020BC
:101B7000BDE8F2832068016841F48071016070471C
:101B80002A4641462046E4E02DE9F047044682B06B
:101B900020688946016841F4806101601646FFF7BC
:101BA000E9FFDDF828800B9D00951F46434600F0B5
:101BB0004FF8FFF791FF002842D12168DFF888A095
:101BC00009F0FE0008612B464246514600F052F8EB
:101BD000002830D100902A46FFF78AFF41468069ED
:101BE0000090FFF7CFFF68B9012F05D02168300AB8
:101BF0000861FFF7C5FF28B92068F6B20661FFF754
:101C0000BFFF28B1206C04281AD1FFF768FF15E048
:101C100000F022F8434600F01BF8FFF75DFF78B9AB
:101C2000216849F00100C0B208612B464246514686
:101C300000F020F828B1206C042801D1012000E038
:101C40000320BDE8F687000002000100009733463C
:101C500000224FF0011170472068016841F4807143
:101C600001600095704700003B463246004901E0A4
:101C70000200010020462EE02DE9F041069E0446B8
:101C80000D4690461F462902090E2068012917D1EA
:101C90004069284080B2A9B2884217D00020404550
:101CA00016D117F1010FEED027B100F031FC801BE7
:101CB0008742E8D200F045F881700170032008E007
:101CC0008069284080B2A9B28842E7D10120E6E7C6
:101CD0000020BDE8F081F8B500F06DF81F4629023C
:101CE000090E2068012916D14169294089B2AAB29A
:101CF000914216D04169490515D5FFF7D2FE6FF420
:101D000080602168486104F13C00042141600021A9
:101D100000F085F8F2BD8169294089B2AAB29142EA
:101D2000E8D10020F2BD16F1010FD8D026B100F0A5
:101D3000EFFBC01B8642D2D200F003F801700320F3
:101D4000F2BD00202063202104F13C0041700021FD
:101D5000704770B500F02FF82068406900060FD476
:101D6000204600F063F808B1012070BD15F1010FA5
:101D7000F2D025B100F0CCFB801B8542ECD21EE0F6
:101D8000002070BD70B500F016F82068406940076B
:101D90000FD4204600F04AF808B1012070BD15F1BB
:101DA000010FF2D025B100F0B3FB801B8542ECD2CD
:101DB00005E0002070BD04460D461646704700F051
:101DC00027F80021216320214170002101700320A8
:101DD00070BD70B5FFF7EFFF20684169490615D463
:101DE0004169C90609D56FF01001416104F13C0059
:101DF0000021416000F013F870BD25B100F088FBB0
:101E0000801B8542E8D200F003F8DCE7002070BDBB
:101E100004F13C00416841F02001416070472163BA
:101E200020214170002101700120704701684A693A
:101E300052050DD56FF480624A6100F13C01042225
:101E40004A6000220263202048700A700120704717
:101E500000207047734881B0016841F001010160C2
:101E6000016801F001010091416841F08051416039
:101E7000406800F0805000906B48016821F0E061FC
:101E800041F00071016001B0704710B586B000F0FC
:101E900045F82068654988421AD16248416841F492
:101EA00000114160416801F4001100F0B0F84FF4F6
:101EB0004070019012200290032004905C4800F0D2
:101EC0002DFB5948016841F0E06141F002010160D9
:101ED00006B010BD81B000685649884208D151480B
:101EE000016841F400610160006800F40060009046
:101EF00001B0704710B586B000F010F820684D4969
:101F0000884209D1474800F078F84FF4706000F03B
:101F10006EF8494800F002FB06B010BD044601A867
:101F2000102100F0D3BB30B585B0FFF7F7FF216873
:101F3000424A3C48914217D141683F4C41F400313C
:101F40004160416801F40031009100F056F804202E
:101F500000F04DF8204600F0E1FA082000F041F8CA
:101F6000204600F0DBFA3AE0354A914237D1416829
:101F70002F4D41F480214160416801F4802100F03F
:101F800046F84FF4806000F032F8284600F0C6FAB8
:101F90004FF4006000F025F8284600F0BFFA294D04
:101FA0002948286000206860A8608020E860002040
:101FB000286168612020A8614FF40050E86128463C
:101FC00000F088FB08B100F04BFE65636C620022F4
:101FD0000121272000F064FE272000F07EFE05B0DE
:101FE00030BD019001A9002002900390704701903C
:101FF00002200290032004907047016841F0040120
:10200000016001A9006800F0040000907047009191
:10201000016841F00801016001A9006800F00800B2
:102020000090704718100240040001400054004026
:10203000000C0140002C0140000801400044004019
:1020400000480040A00D0020300002402DE9F84378
:102050000446DFF87C542078C00747D5686800F054
:102060000C00042807D0686800F00C0008280AD18A
:102070006868C00307D52868800337D560680028E2
:1020800034D1012048E16068B0F5803F09D008B93B
:1020900028680AE0B0F5A02F286806D140F4802017
:1020A0002860286840F4803005E020F48030286003
:1020B000286820F480202860606858B100F028FA71
:1020C00007462868800311D400F022FAC01B652857
:1020D000F7D31EE100F01CFA07462868800305D5F7
:1020E00000F016FAC01B6528F7D312E12078DFF85C
:1020F000EC63800718D5686810F00C0F07D068688B
:1021000000F00C00082825D16868C00322D4286894
:10211000800702D520690128B3D12868616920F0C1
:10212000F80040EAC1002860207800073ED5A16988
:10213000DFF8AC03002964D00121016000F0E8F968
:102140000746686A800722D400F0E2F9C01B032822
:10215000F7D3DEE0206968B10120306000F0D8F9E3
:10216000074628688007D8D400F0D2F9C01B03289E
:10217000F7D3CEE0306000F0CBF90746286880073F
:10218000D2D500F0C5F9C01B0328F7D3C1E0DFF8B2
:1021900044030068C0084FF47A71B0FBF1F000907E
:1021A00000BF0098411E00280091F9D12078400717
:1021B0006ED5E869C0004FF0000809D4E86940F026
:1021C0008050E8614FF00108E86900F0805000900D
:1021D000DFF81093D9F80000C0051FD4D9F800002B
:1021E00040F48070C9F8000000F092F90746D9F871
:1021F0000000C00512D400F08BF9C01B6528F6D38F
:1022000087E0016000F084F90746686A8007CDD551
:1022100000F07EF9C01B0328F7D37AE0E0680128BC
:1022200008D008B9286A09E00528286A06D140F0D4
:1022300004002862286A40F0010005E040084000E0
:102240002862286A20F00400286241F28939E06897
:1022500058B100F05DF90746286A800711D400F0F4
:1022600057F9C01B4845F7D353E000F051F9074632
:10227000286A800705D500F04BF9C01B4845F7D305
:1022800047E0B8F1000F03D0E86920F08050E86122
:10229000E06900283FD0696801F00C0108293FF48B
:1022A000F0AE02282AD100F039F8074628688001EC
:1022B00005D500F02DF9C01B0328F7D329E0206ACB
:1022C000B0F5803F05D16868A16820F4003008436C
:1022D00068606868216A20F474100843616A0843E2
:1022E0006860012000F01BF807462868800112D4BE
:1022F00000F00EF9C01B0328F7D30AE000F00EF837
:1023000007462868800106D500F002F9C01B0328A3
:10231000F7D3032000E00020BDE8F2830020306600
:1023200000F0F6B82DE9F8436F4E04463068884651
:1023300000F00700404502D200F086F85FD1206827
:10234000634F810712D5400703D5786840F4E060F9
:1023500078602078000703D5786840F46050786092
:102360007868A16820F0F000084378602078C00702
:102370003DD56068012802D13968890303E002284D
:10238000396802D1890102D439E0890737D57968E3
:10239000890840EA8100786041F2893900F0B8F894
:1023A0000546606801280AD1786800F00C0004280E
:1023B0001DD000F0ADF8401B4845F5D315E00228CC
:1023C0000AD1786800F00C00082810D000F0A0F8BE
:1023D000401B4845F5D308E0786810F00C0F06D094
:1023E00000F096F8401B4845F6D303202AE03068F9
:1023F00000F00700804504D200F026F801D001204B
:1024000020E02078400705D57868E16820F4E06096
:10241000084378602078000706D57868216920F4A1
:10242000605040EAC100786000F018F87A682F49DF
:10243000C2F30312895CC84026490860002000F0FE
:1024400077FC0020BDE8F2833068C00848EAC0008D
:102450003060306800F007004045704710B586B026
:1024600001A80FF29801102200F092FC0FF29C00DC
:102470001F490088ADF800000A68174802F00C03F5
:10248000082B10D101ABC2F38344D2031B5D08D5E6
:102490000968C1F3404158431DF80110B0FBF1F049
:1024A00001E01448584306B010BD0A48104A0068BD
:1024B00012681149C2F3022206E006480C4A00687D
:1024C00012680D49C2F3C222895CC84070470000FF
:1024D000001002404000002000127A00000042423A
:1024E000800442420070004000200240107B00083F
:1024F0000410024000093D00847C0008020304052A
:10250000060708090A0B0C0D0E0F1010010200003F
:1025100001484068704700BF340000202DE9F847AB
:102520004FF0000E00225C4BDFF87081DFF87091F5
:102530004FF00F0A012707FA02F60F683740B7423B
:1025400040F09F804C685CB3012C1AD0022C1FD045
:10255000032C31D0112C17D0122C1DD0514DAC4270
:102560001CBF514DAC421BD0504DAC421CBF504D16
:10257000AC4215D04F4DAC421CBF4F4DAC420FD0BA
:102580001CE0D1F80CE019E0CC6804F1040E15E071
:10259000CC6804F1080E11E0CC6804F10C0E0DE0DB
:1025A0008C6814B94FF0040E08E0012C4FF0080EAF
:1025B00014BF4661066101E04FF0000EFF2F02D804
:1025C0008446940004E0A2F1080400F1040CA40085
:1025D000DCF800500AFA04F6B5430EFA04F42C4372
:1025E000CCF800404C68E4004BD5D9F8004044F0EA
:1025F0000104C9F800404FEA920CD9F8005005F0E8
:1026000001040094940058F82C5004F00C040AFAC9
:1026100004F6B543294EB04208BF00260ED0284E1E
:10262000B04208BF012609D0264EB04208BF02269C
:1026300004D0254EB0420CBF0326042606FA04F44B
:102640002C4348F82C40FD434C68E4031C684CBF05
:102650003C432C401C604C68A4035C684CBF3C436A
:102660002C405C604C68E4029C684CBF3C432C40AE
:102670009C604C68A40247BFDC682743DF682F409A
:10268000DF60521C102AFFF455AFBDE8F18702B994
:102690000904016170470000000401400800014086
:1026A000181002400000111000001210000021104C
:1026B000000022100000311000003210000801401C
:1026C000000C01400010014000140140002200F005
:1026D0008BBB000010B508B9012010BD0268DFF8FF
:1026E000E8329B18142400F13801B3FBF4F39B008B
:1026F0008B60DFF8D8324B60022380F821301368FA
:1027000044686FF30D13234384682343C468234351
:10271000046923434469234384692343C4692343ED
:10272000136000220A60012180F8211080F8202027
:10273000002010BDF8B500F032F801D10220F2BD42
:1027400000F033F820D1022005F12C0685F8210095
:10275000F460286807687F087F000760284600F05B
:1027600045F9286831680029016818BF41F00E0159
:1027700006D121F0040101602868016841F00A01D6
:10278000016000F006F802E085F8204002242046AF
:10279000F2BD2868016841F00101016070470546FB
:1027A000002495F8200001287047012085F82000BA
:1027B00095F821000128704701680A6822F00E028E
:1027C0000A600A68520852000A6000F13C010122C6
:1027D0004B6809689A404A60012180F82110002165
:1027E00080F820100020704710B590F821200024B8
:1027F000022A00F1340103D00420486001243FE0A4
:102800000268136823F00E031360026813685B0804
:102810005B0013600268DFF8B8319A4208BF0122FA
:1028200022D0DFF8B0319A4208BF10221CD0DFF866
:10283000A8319A4208BF4FF4807215D0DFF89C315E
:102840009A4208BF4FF480520ED0DFF894319A427A
:1028500008BF4FF4803207D0DFF888319A420CBFAE
:102860004FF480124FF08072DFF87C311A60012241
:1028700080F8212080F8204009680A0018BF8847A6
:10288000204610BD2DE9F84F00F1280104274A69C0
:10289000544BD2F800E00468534A25688E69DFF88B
:1028A0004081DFF83891DFF830A1DFF828B1DFF898
:1028B00020C1B7401EEA070F2DD06F072BD5256822
:1028C000AD0603D4256825F0040525600468644539
:1028D00008BF042318D05C4508BF402314D05445DA
:1028E00008BF4FF480630FD04C4508BF4FF48043BE
:1028F0000AD0444508BF4FF4802305D09C420CBF4A
:102900004FF480034FF08063136049680A0058D089
:10291000BDE8F44F08470227B7401EEA070F33D03F
:10292000AF0731D52568AD0606D4256825F00A0520
:102930002560012480F821400468644508BF022313
:1029400018D05C4508BF202314D0544508BF4FF46D
:1029500000730FD04C4508BF4FF400530AD04445D4
:1029600008BF4FF4003305D09C420CBF4FF4001356
:102970004FF000731360002280F8202009680A00DD
:102980001FD0BDE8F44F08470822B2401EEA020FEC
:1029900017D02A0715D5226822F00E0222600122E4
:1029A0008B699A404B695A6001220A6180F82120A4
:1029B000002280F8202089680A0002D0BDE8F44F88
:1029C0000847BDE8F18F0000F8FFFDBF000002409E
:1029D000080002401C000240300002404400024057
:1029E000580002406C0002400400024030B5056C03
:1029F0000124AC40C56B6C600468636040681028BB
:102A000002D1A260E16030BDA160E26030BD000093
:102A100070B586B000F002FA00F082F801A810212B
:102A2000FFF754FE834C844E606840F010006060F5
:102A30000022606800F0100000904FF400516068C0
:102A400040F0040060604FF40055606800F004003E
:102A50000090606840F008006060606800F0080066
:102A600000903046FFF713FE0120029001950020F0
:102A7000039001A9022004903046FFF74FFD206823
:102A80006E4E40F001002060002220686C4C00F087
:102A90000100009001210D2000F002F90D2000F04E
:102AA0001CF96848206066600020A060E0604FF478
:102AB0008040206100206061A061E06120622046CA
:102AC000FEF7B2FD00F057F804F194005E49016092
:102AD00046604FF480518160C5604FF480610161B0
:102AE0000C21416100218161C16100F0A9F95748C1
:102AF00060654FF4E130A0650020E0652066606607
:102B00000C20A0660020E066206704F1540000F06D
:102B100097F94FF47A7000F00BFC00F000FDFEE72F
:102B200000B58FB005A82821FFF7D0FD6846142115
:102B3000FFF7CCFD022005900120099010200A909B
:102B400002200C9000200D904FF460100E9005A80C
:102B5000FFF77CFA0F200090022102200190002054
:102B600002904FF480600390002004906846FFF7C5
:102B7000D9FB0FB000BD10B594B010A81021FFF71D
:102B8000A5FD0FF2E000324CD0E90023CDE900238F
:102B900002A81C21FFF79AFD09A81C21FFF796FD4A
:102BA0002C482060402060600020A06041F2883006
:102BB000E060002020616061A061204600F000FF1D
:102BC0004FF48050109010A9204601F003F82046E1
:102BD00000F00DFF0020009001906946204601F0B2
:102BE000A6F9602002900022002003900490059036
:102BF00006900790089000F02FF8042200F02CF8BF
:102C0000082200F029F80C2200F026F80020099094
:102C10000A900B900C900D9009A94FF400500E9063
:102C200000200F90204601F059F92046FFF762F985
:102C300014B010BD1410024000100140A086010025
:102C4000E00B0020005400400048004000440040D9
:102C5000280E0020002C014002A9204600F04EBFA3
:102C6000704700000000000000000000090100287B
:102C700006D5294A00F00F00104400F8041C7047E4
:102C8000264A1154704726490A684FF6FF0300028E
:102C90001A4000F4E0601043224A10430860704775
:102CA00038B51F4B1B68C3F30223C3F10704052C7F
:102CB00028BF04241D1D072D34BF0023DB1E012562
:102CC00005FA04F4641E2140994005FA03F35B1EE3
:102CD0001A401143BDE83440C8E7012100F01F024B
:102CE0009140114AFFE7400942F82010704710B5A3
:102CF000401EB0F1807F01D3012010BD0B4C6060FD
:102D00000F214FF0FF30FFF7B1FF0020A060072038
:102D10002060002010BD000018ED00E000E400E09D
:102D20000CED00E00000FA0500E100E010E000E03A
:102D300038B50D4D297804464FF47A70B0FBF1F0A8
:102D40000A490968B1FBF0F0FFF7D1FF50B9102C28
:102D500008D2002221464FF0FF30FFF7A1FFAC6000
:102D6000002032BD012032BD340000204000002090
:102D700062B38B0708D0521E11F8013B00F8013BEB
:102D800000F024808B07F6D1830740F0208000BF3D
:102D9000103A07D330B4B1E83810103AA0E8381030
:102DA000F9D230BC530724BFB1E80810A0E80810DE
:102DB00044BF51F8043B40F8043BD20724BF31F82C
:102DC000022B20F8022B44BF0B7803707047083A9F
:102DD00007D3B1E80810083A40F8043B40F804CBA8
:102DE000F7D25307E4E7000000B500BF1300964692
:102DF0009446103928BFA0E80C50FAD85FEA417C0D
:102E000028BF0CC048BF40F8042BC90728BF20F8D2
:102E1000022B48BF00F8012B00BD000080B5074819
:102E2000016841F0100101600320FFF72CFF002032
:102E3000FFF77EFFFFF70EF8002002BD00200240E2
:102E400038B5050001D1012032BD05F138046078A4
:102E500008B900F013F800F015F800F007F821F0B9
:102E60002A01FFE7416100F017F832BD28680169C7
:102E700021F490410161286841697047207028461B
:102E8000FFF751B8242060702868C16821F4005110
:102E9000C160284600F0D9B92868C16841F40051E2
:102EA000C1600020606020206070A070002070472A
:102EB00038B5044604F13805A87820283CD109B17A
:102EC000100001D1012032BD2878012834D0012022
:102ED0002870A162A285002068602220A870636B20
:102EE0000FF20D209862636B0FF23D20D862636B86
:102EF0000FF23D2018630020636B5863134620686F
:102F00000A46011D606BFFF715FC00200090206849
:102F1000016800914168009100212970C16841F465
:102F20008071C1602068416941F001014161206800
:102F3000416941F0400101E0022032BD41610020C1
:102F400032BD38B5044604F13905206841692A7854
:102F5000212A09D1090607D500F017F808B1FFF7B3
:102F60002BFC204600F009F9206841696A78222A82
:102F700009D1490607D500F00EF808B1FFF71CFC8F
:102F8000204600F003F9002032BD416921F08001A4
:102F90004161206B7047416921F040014161606BE4
:102FA000704738B5044623681868D9685A6910F024
:102FB0000F0507D182065DD58A065BD52046BDE8A0
:102FC0003240F9E0D50702D411F4907F52D0C30704
:102FD00005D5CB0503D5E36B43F00103E36343075A
:102FE00005D5D30703D5E36B43F00203E3638307FF
:102FF00005D5D30703D5E36B43F00403E36303076D
:1030000005D5D20703D5E26B42F00802E263E26B1A
:10301000002A6CD0800604D5880644BF204600F004
:10302000CBF820684069E16B090701D440061BD545
:10303000204600F0ABF82068416949060FD5FFF73C
:10304000AAFF60B10FF265114163606BFFF7CCFB23
:1030500000284CD0606B416BBDE8344008472046E7
:10306000BDE8324000F09EBF204600F09BFF0020EC
:10307000E06331BD02062AD50A0628D594F8390046
:10308000212834D1A068B0F5805F206A0BD1008878
:10309000C0F30800586020690028206A0CBF801C1B
:1030A000401C206203E0411C216200785860E08CE3
:1030B000401EE08480B2D0B92068C16821F0800150
:1030C000C1602068C16841F04001C16031BD400667
:1030D0000DD548060BD5D86820F04000D8602020D8
:1030E00084F839002046BDE8324001F099B831BD7E
:1030F0000146486A09680968890613D40021C18518
:103100000168CA6822F48072CA6001684A6952087C
:1031100052004A6101684A6922F040024A61202156
:1031200080F83A1000F047BF406A01F07AB800001A
:1031300038B5446A2068406904F1390529782129A5
:1031400006D1000604D50020E084204600F015F8E2
:10315000206840696978222906D1400604D50020FC
:10316000E085204600F012F8E06B40F01000E063CC
:103170002046BDE8324000F015BF0168CA6822F061
:10318000C002CA60202180F8391070470168CA68FF
:1031900022F49072CA6001684A69520852004A617A
:1031A000202180F83A10704700000000406A00219A
:1031B000C185C18400F0F6BE80B590F83A1022298E
:1031C00041D18168B1F5805F12D10269816A002A1C
:1031D0000268526805D1C2F308020A80816A891C1C
:1031E00004E002F0FF020A80816A491C81620FE05C
:1031F00001690029816A04D14A1C8262026852680E
:1032000005E04A1C82620268526802F07F020A707E
:10321000C18D491EC18589B299B90168CA6822F079
:103220002002CA600168CA6822F48072CA6001681C
:103230004A69520852004A61202180F83A1000F091
:10324000BAFE002002BD022002BD2DE9F04704466F
:10325000642520680169E26821F44051114301614D
:103260001926C168304A1140A268114322691143EE
:1032700062691143C1604169A26921F4407111433F
:1032800041612A4988420ED1FFF717F90746FFF737
:1032900014F98046FFF711F98146FFF70EF98246CF
:1032A000FFF70BF90DE0FFF700F90746FFF7FDF810
:1032B0008046FFF7FAF88146FFF7F7F88246FFF7F6
:1032C000F4F806FB08F361688900B3FBF1F306FB31
:1032D00007F206FB09F7B7FBF1F7B7FBF5F705FBBC
:1032E00017331B013233B2FBF1F2B3FBF5F3B2FB40
:1032F000F5F203F0F00303EB0212704306FB0AF34E
:10330000B0FBF1F0B3FBF1F3B0FBF5F005FB1030CF
:1033100000013230B0FBF5F0216800F00F0080189A
:103320008860BDE8F0870000F3E9FFFF0038014046
:1033300038B50446FFF7ECF814F1010F054602D04A
:10334000044800780419FFF7E3F8401BA042FAD3C1
:1033500031BD00BF34000020DFF87804017901B9E5
:10336000704770B58168C268491C9142816002DB78
:103370000123143203700369994202DB01241433E0
:10338000C4708469A14203DB012504F5FA74457019
:103390004569A94202DB01263235867041F2883642
:1033A000B14206DB00218160142214234FF4FA7429
:1033B0003225456184610361C26070BD2DE9FC4224
:1033C0000246DFF8143410680FF224460FF2284743
:1033D000DFF80844DFF80894194600F023FF08D10D
:1033E00000F08FFF00F091F801F06AF822464B469A
:1033F0000CE000F0E6F9DFF8EC5318D100F081FFA3
:1034000000F083F801F05CF822462B4601F080F8CA
:1034100000F06CF800F075F800F073FF00F06CF845
:1034200001464FF41070304401F046F957E05068FF
:10343000194600F0F7FE10D100F063FF00F06AF8C3
:1034400001F03EF822464B4601F062F804460D4674
:10345000CDE900450FF2B43235E000F0B2F910D1F9
:1034600000F04FFF00F056F801F02AF822462B46F4
:1034700001F04EF804460D46CDE900450FF2A032AA
:1034800021E0D068D8490FF2AC3700F0CBFE0BD169
:1034900000F037FF4FF41071084401F025F901F0F6
:1034A0000FF822464B460AE000F087F91BD100F0E6
:1034B00028FF00F02FF801F003F822462B4601F018
:1034C00027F800F013F800F01CF800F01AFF00F0E5
:1034D00013F801464FF41070304401F0F2F8042163
:1034E000002001F053F90120BDE8F68204460D46A4
:1034F000CDE900453A46704706462046294601F088
:1035000055B93146022001F099B94FF410710844C1
:1035100001F0E6B84FF41071084401F0E3B82DE96A
:10352000F04F8DB001F08EF901000FF2C4280BD1DD
:103530000FF214324146002001F080F94FF47A7006
:10354000FFF7F6FE01F07EF958B90FF22832414636
:1035500001F074F90021002001F0F8F80DB0BDE889
:10356000F08F00F0CEFE322100F0E0FE0FF22C32A0
:1035700000F01EF9974D012028710421002001F070
:1035800005F966E00FF2B8324146002001F056F925
:10359000E878002851D00020E87001F085FA05F1A4
:1035A0001C0101F093FA01F07FFA834601F07CFAE6
:1035B000064601F079FA074601F076FA044601F072
:1035C00073FA814601F070FA8246DBF8340000F0AD
:1035D00077FFCDE90A01B06B00F072FFCDE9080179
:1035E000F86B00F06DFFCDE90601A06A00F068FFFE
:1035F000CDE90401D9F82C0000F062FFCDE9020109
:10360000DAF8300000F05CFFCDE900010FF25C3227
:103610004146FFF777FF01F047FA064600F071FEDA
:1036200006F1280100F01BFF01F03EFA064600F00B
:1036300068FE06F1340100F015FFA87800281FBFCE
:103640000020A8706879002803D000F05AFE00F02E
:1036500094FE287838B10020287001F075FA05F141
:103660001C0101F0A3FA6878002891D0002068704E
:1036700001F0E0FA08A901F008FB012882D00B98BC
:1036800000F01EFFCDE906010A9800F019FFCDE910
:103690000401099800F014FFCDE90201089800F038
:1036A0000FFFCDE900010FF208224146FFF72AFF84
:1036B0006B79AA7918000DD1089800F087F823D10A
:1036C000099800F0AFFD05D100F076F836D100F092
:1036D0007CF827D0100041D0089800F077F83DD151
:1036E00000F06EF83AD100F067F837D100F06DF8CD
:1036F00034D10020A8710FF2142200F059F80021F3
:10370000002001F023F843E700F05BF84AD1099864
:1037100000F088FD46D100F04FF843D10A9800F040
:1037200050F83FD10120687101F0CEFA01F0DBFAC8
:103730000FF2AC1200F03CF80121E1E72A4900F059
:1037400071FDC7D100F041F8C4D10120A8714146F4
:103750000FF2A01200F02DF80121D1E713B3089861
:1037600000F034F813D100F02BF810D10B981E495B
:1037700000F058FD0BD100F028F808D10020687146
:1037800001F0A2FA01F0AAFA0FF29C12B5E700F0DC
:10379000B8FD08A900F058FE00F0B3FD0B9900F049
:1037A0006CFEF5E6002AFCD008A8FFF707FEEFE65E
:1037B0004146022001F042B80B980C4900F032BD9E
:1037C00009984FF07E5100F02DBD0A98024900F093
:1037D00029BD000000000020000080BF9A9999993F
:1037E0009999B9BF9999B93F0000B4C20000B44299
:1037F0004D61696E4170700054756E655049443A70
:10380000204B7020746F2025660D0A0054756E657C
:103810005049443A204B6420746F2025660D0A00FD
:1038200054756E655049443A204B6420746F2025CE
:103830000D0A000054756E655049443A204B6920CA
:10384000746F2025660D0A004D61696E417070200D
:103850006661696C656420746F20696E69742064A8
:1038600065766963652C2074727920616761696E81
:103870000D0A00004D61696E417070206661696CCF
:10388000656420746F20696E69742064657669636D
:10389000652C2061626F72740D0A00004D61696EC3
:1038A000417070207374617274730D0A000000001F
:1038B000436D643A206163632E782025662061633E
:1038C000632E79202566206163632E7A2025662C7D
:1038D00020796177526174652025660D0A00000029
:1038E0004D61696E4170703A2041726D65642121AD
:1038F000210000004D61696E4170703A2054756E70
:10390000696E672050494421212100004D61696E94
:103910004170703A20457869742054756E696E67FD
:1039200020504944212121004D61696E4170703A57
:103930002044697341726D656421212100000000FB
:1039400073436D644C697374656E65722E4765745C
:10395000436D642072657475726E73206661696C64
:103960002C20736B69700D0A0000000045737469A8
:103970006D617465642053746174653A20726F6C74
:103980006C2025662C2070697463682025662C20C5
:103990007961772025662C20726F6C6C526174659A
:1039A0002025662C20706974636852617465202537
:1039B000662C20796177526174652025660D0A00B6
:1039C00038B5040001D1012032BD00F01DF818B94E
:1039D00028702046FEF77EFAFFE702206870211D5E
:1039E000206800F060F901206870002032BD38B511
:1039F000040001D1012032BD00F006F818B928708A
:103A0000204601F0FFF9E8E704F13C0568787047CB
:103A100010B500F049F834E010B500F022F800F0DD
:103A200017F802BFDFF8CC2013680B4204BF1368FD
:103A3000034200F01BF804BF116A014203D1106871
:103A4000400840001060012084F83D00002010BDB7
:103A50002268DFF8A43041F211119A4240F244404A
:103A6000704704460022206800F025BA03D1536A4B
:103A700023F4004353622268136A0B42704700F03C
:103A800017F800F018FA2068DFF86C10884205D1AA
:103A9000DFF83C110A6842F400420A60016841F014
:103AA00001010160002010BD04460122206870471A
:103AB0000446080006D0042909D008290CD00C2996
:103AC0000FD013E02068C26842F002020DE02068C7
:103AD000C26842F0040208E02068C26842F00802AE
:103AE00003E02068C26842F01002C2602068012230
:103AF00070470000202C0140002C014070B50646A4
:103B000006F13C040D462078012801D1022070BD49
:103B100000F058F832B1042A14D0082A24D00C2A14
:103B200032D042E0306800F0EEF83068816941F050
:103B3000080100F043F821F0040100F03FF82A6981
:103B400011430FE0306800F000F93068816941F4FA
:103B5000006100F033F821F4806100F02FF82A6949
:103B600041EA0221816120E0306800F01AF93068F2
:103B7000C16941F0080100F01DF821F0040100F0D6
:103B800019F82A6911430FE0306800F035F9306800
:103B9000C16941F4006100F00DF821F4806100F08A
:103BA00009F82A6941EA0221C16101206070002000
:103BB000207070BDC1613068C16970478161306833
:103BC00081697047012020700220607070470000FA
:103BD000442C014038B500F05BF801D1022032BD21
:103BE000FFF7F0FFDFF85032286882681A408260E1
:103BF0000868002837D0102837D0202837D0302840
:103C000037D040282BD050281ED0602820D07028D4
:103C10000BD0B0F5805F03D0B0F5005F0CD02CE086
:103C200028688168C908C9000CE000F02CF82868F1
:103C3000816841F0770105E000F025F82868816887
:103C400041F48041816018E000F019F8502111E042
:103C5000CA684968286800F00AF960210AE000F0A3
:103C60000EF8402106E0002104E0102102E02021AE
:103C700000E03021286800F00CF90FE00000CA686D
:103C800049682868E2E0CB684A688968286808E1E2
:103C9000054605F13C04207801287047012060703A
:103CA0000020207032BD70B5644A0368644C654DD5
:103CB000904218BFB0F1804F03D0A84218BFA04275
:103CC00009D14E6823F07003334390421CBFB0F11A
:103CD000804FA84201D0A04203D1CC6823F44073A6
:103CE00023434C6923F080032343036090428B6895
:103CF000C3620B68836202D10969534A11600121D2
:103D0000416170BD000030B5026A5208520000F0F7
:103D100042F823F073032B438D6824F002042C43F4
:103D200000F067F80BD122F44072CD6824F008044B
:103D30002C434D692A438D6924F004042A434260D0
:103D4000836149684163046230BD70B5026A22F044
:103D5000100200F020F823F4E64343EA05238D68BF
:103D600024F0200444EA051400F043F80DD1CD6896
:103D70008E6924F0800444EA05144D6922F44062FF
:103D8000354324F0400442EA850242608361496879
:103D90008163046270BD0262046A426883690D68CF
:103DA000704770B5026A22F480720262046A426847
:103DB000C3690D6823F073032B438D6824F40074EA
:103DC00044EA052400F015F80DD1CD688E6924F47D
:103DD000006444EA05244D6922F44052354324F43A
:103DE000806442EA05124260C3614968C1630462AB
:103DF00070BD124DA842704730B5026A22F480525D
:103E00000262026A4368C4690D6824F4E64444EA25
:103E100005248D6822F4005242EA0532FFF7E9FFDB
:103E200004D14D6923F4804343EA85134360C461A0
:103E300049680164026230BD8800FFFF002C014028
:103E40000008004000040040302C014010B5036A17
:103E5000046A640864000462846924F0F00444EA9B
:103E60000212826123F00A021143016210BD10B5F3
:103E7000036A23F0100303628369046A23F4704326
:103E800043EA0232826124F0A00242EA0111016297
:103E900010BD826822F07002114341F00701816079
:103EA000704710B5846824F47F442143114341EAEC
:103EB0000321816010BD10B5036A01248C40A34327
:103EC000036202FA01F1036A1943016210BD0000A6
:103ED000D960002180F83C10002010BD10B590F88A
:103EE0003C20012A01D1022010BD012280F83C2093
:103EF000CB688C688A6923F4407323434C6823F4AD
:103F0000806323430C6823F4006323430C694969ED
:103F100023F48053234323F40053194321F48041B5
:103F2000114321F40041114302685164D1E730B5D7
:103F300000F13C021378012B01D1022030BD012396
:103F400013700223537003685C6824F070045C6093
:103F500003685C680D682C435C6003689C6824F00F
:103F600080049C600068836849681943816001206F
:103F700050700020107030BD10B5854C2068C068AE
:103F8000C00609D5192283492046FEF791FF206813
:103F9000C16821F01001C1602046BDE81040FFF764
:103FA00000B870477C484178491C41700522011DCA
:103FB0007748FEF77DBF10B5774803790F2B10D0F7
:103FC0000FF2FC120FF2F011714C002000F036FCE1
:103FD0002046FEF7B6FF2068C16841F01001C160BD
:103FE00010BD01210170011DBDE81040006A1922B9
:103FF00000F048BF80B5192000F006FF664908624E
:1040000038B90FF2D0120FF2B01100F017FC0020F7
:1040100002BD012002BD38B55D485F4D0068C16832
:1040200041F01001C160052403E04FF47A70FFF7FE
:104030007FF9287808B9641EF7D1287838B90FF2CB
:10404000B4120FF2741100F0F9FB002032BD012010
:1040500032BD30B5040091B008D10FF2B0120FF2AA
:104060005811002000F0EAFB00208EE0192000909B
:104070006A464948006A09A900F020FF09A8827829
:104080004178C378057941EA0221C1F30A01ADF80C
:104090000410D20801A942EA4312C2F30A024A807C
:1040A0009B09427900F081F88B8052088379057A68
:1040B00042EAC312C2F30A02CA801B09C27943EA68
:1040C0000213C3F30A030B81D209437A00F066F8A6
:1040D0004A819B08827A9DF8335043EA8213C3F3E6
:1040E0000A038B8152099DF82F3042EAC302CA812C
:1040F000037B427B43EA0223C3F30A030B82D20809
:10410000837B42EA4312C2F30A024A829B09027C81
:1041100000F04BF88B825208437C9DF8375042EAFE
:10412000C312C2F30A02CA821B09827C43EA021349
:10413000C3F30A03ADF81C30D209037D00F02EF85A
:10414000ADF81E209B08427D807D43EA8213520910
:1041500042EAC002ADF82220C3F30A03ADF82030D2
:10416000002231F8123044F82230521C102AF8DBB9
:1041700004F1400110F0200318BF012310F01002D9
:1041800018BF01224B700A70012011B030BD000031
:10419000740C00206C0E0020680E002042EA4502DC
:1041A00042EA4322C2F30A02704743EA850343EA24
:1041B0008223C3F30A0370475342555300000000A3
:1041C000534255532074727920616761696E2025CE
:1041D000640D0A0050696E67506F6E6742756666BF
:1041E00065725F496E6974206661696C65640D0A69
:1041F0000000000053425553206661696C656420DD
:10420000746F2073746172740D0A000025732C2082
:10421000696E70757420696E76616C69640D0A0050
:104220007047704740EA010C5FEA4C0C07D08842A7
:1042300005D14FEA400C1CF1807F98BF8042704747
:104240002DE9F8430446C82100F094FEC82104F18A
:10425000600000F08FFEC82104F1C00000F08AFE6B
:104260004FF4907025186421284600F0BFFE4FF4EB
:10427000C07026186421304600F0B8FE4FF4F0708C
:104280006421204400F0B2FE4FF41070271864211E
:10429000384600F0B1F94FF4287004EB00086421AF
:1042A000404600F0A9F94FF4407004EB0009642186
:1042B000484600F0A1F900F007FDC4F860030023B0
:1042C00000220021284600F0F3FE002300220021F6
:1042D000304600F0EDFE002300221049384600F081
:1042E000E5F9002300220021404600F0DFF9002319
:1042F0000B4A4FF07C51484600F0D8F92046BDE803
:10430000F28310B5074C207820B901202070201DC1
:10431000FFF796FF201D10BD00000000CDCC4C3EE5
:104320000AD7233C4806002000F016BF38B50446E3
:104330000D464FF49070C4F8B85300F017F84FF4DE
:10434000C07000F012F84FF4F07000F00EF84FF467
:10435000107000F00EF84FF4287000F00AF84FF4D7
:10436000407000F006F8012032BD2946204400F0DC
:10437000AABE2946204400F0ADB92DE9F04105461A
:104380004FF458702C1888B06068E2692061A0680A
:104390006061E068A0614FF45C7029184FF45F70B1
:1043A000284400F0F4FEA26B216A4FF49070284478
:1043B00000F056FE6064E26B616A4FF4C0702844FE
:1043C00000F04EFEA064226D616C4FF41070284422
:1043D00000F04CF90646626DA16C4FF42870284439
:1043E00000F044F98046E26C216C4FF440702844A0
:1043F00000F03CF90546E06800F03DFF074600F09C
:104400005FF8CDE90601284600F05AF8CDE904012D
:10441000404600F055F8CDE90201304600F050F872
:10442000CDE900010FF268020FF25801022000F0FE
:1044300005FA00972B4620684246314600F058FCAA
:10444000012008B0BDE8F0814FF4597210440A68A9
:1044500002604A68426089688160012070474FF4B9
:10446000657201E04FF46B7210444A6842608A68DA
:1044700082600968016001207047C0F8A013012024
:1044800070470000436F6E74726F6C6C6572000051
:104490005468727573743A2070697463683A2025A1
:1044A0006620726F6C6C3A202566207961773A201D
:1044B0002566206865696768743A2025660D0A00DC
:1044C0005FF0FF0C1CEAD05114BF614506E0C1103B
:1044D000400721F0E04101F16051704779B900F0E7
:1044E000004100020AD0B0FA80FC00FA0CF001F1A1
:1044F0006051A1EB0C5101EBD02140057047410206
:104500000CBF40F4E0016FF0000100207047000094
:10451000F0B44FF0004591EA030C44BF6B4000F04B
:10452000BFBE00BF841A71EB030603D2001BB1416A
:10453000121973414FF4001C1CEB410F34BF7CEB8C
:10454000430443E00C0DA4EB1356352E50DC45EA32
:10455000C323DB0A45EAC121C912B6F120050DDDEE
:1045600063FA05F6EB4086EA0305124218BF45F0F0
:104570000105C01851F100010CD213E062FA06F5F2
:10458000F2405540F3415A40B340F3405A4080183E
:10459000594107D349085FEA30005FEA350528BF73
:1045A00045F0010501F58011420875F1004250F116
:1045B000000041EB0451F0BC4FF4001C1CEB410F18
:1045C00038BF70470020090D090570471CEB410FEB
:1045D00010D252EA43060BD0BCEB410F05D80C0DAC
:1045E000AB43661E342EB5DD02E0AB438018594163
:1045F000F0BC7047F0BC704730B585B00446002071
:1046000004900D460120039004F14403606D029074
:1046100004F14C02A06D019004F14801206D00905E
:10462000204600F0F3FE002020656065A065606410
:10463000A064E064636DA26D216DE565204600F025
:10464000A3FFE16D204600F0A6FF064A064920467A
:1046500000F0BEFF0121204600F0E3FF204605B038
:1046600030BD00000000FA420000FAC210B5044656
:1046700086B06164A26400F0E9FEE06CFFF720FF01
:10468000CDE90401A06CFFF71BFFCDE90201606CCE
:10469000FFF716FFCDE900010FF264020FF250019F
:1046A000022000F0CBF8E06C06B010BD80B50165CB
:1046B00083654265436D07E080B50165436D826D9A
:1046C00004E080B541650B46826D016D00F05CFF32
:1046D000012002BD80B5C16500F05DFF012002BD73
:1046E000006D7047406D7047806D7047000000009E
:1046F000436E74726C6C65724174745261746500BF
:10470000476574446573697265644D6F746F725464
:1047100068727573743A20736574706F696E743A59
:104720002025662C206375722076616C3A20256600
:104730002C206F75747075743A2025660D0A000080
:1047400080B5012200F00AF8012002BD80B518B939
:1047500081F0010200F002F8012002BD4FF4005187
:104760000848FDF794BF80B548B90748017881F043
:10477000010101704A1E9241D20FFFF7EFFF0120A5
:1047800002BD000000100140DC0E002070B50446A0
:104790000D46002606E02046FFF7E5FFC820FEF79D
:1047A000C7FD761CAE42F6DB012070BD4FEAF17CFE
:1047B000BCF1E04C2CBFBCF5001F11E05FEA4C0CD3
:1047C00034BFBCF17F5F2EE05FEA9C0C4FEA0C1C0B
:1047D0004FEA3C0CC10071F100414CEB5070704746
:1047E000C90241EA5051C00218BF41F0010141F035
:1047F00000414FEA6C50C0F10900212810D240EA74
:10480000CC7CCCF1200C11FA0CF070F10040CCF112
:10481000200C21FA0CF00CF0004C40EB0C0070471F
:104820004FEACC707047490011F5001F04D84FEAD9
:10483000CC10FF30C0057047C817704708B401B0EE
:104840007047000038B500F029FF0FF2D40438B9E2
:104850000FF2D8022146FFF7F1FF0FF2EC1252E0FF
:104860000FF2DC0200F058F800F01AFF10B90FF256
:10487000E402EFE70FF2F00200F04EF800F07EFFE6
:1048800010B90FF2F802E5E700F081FF0FF2001512
:1048900000F041F8FFF754FF10B90FF20812D9E702
:1048A00000F039F800F000F900F00EF938B90FF215
:1048B00008122146FFF7C2FF0FF2A41223E000F016
:1048C00043F900F04BF910B90FF20C12F1E7FFF7C2
:1048D00018FDFFF729FD10B90FF21812E9E700F0F3
:1048E000A9F900F0B1F910B90FF22412E1E700F0D4
:1048F000A1F900F0B1F960B90FF230122146FFF7CB
:104900009DFF0FF2741221460020FFF797FF002051
:1049100032BD012032BD2A4621460220FFF78EBF5C
:104920004465766963654374726C00005541525466
:1049300020496E6974206661696C65640D0A000027
:104940005541525420496E697420737563636573D1
:10495000730D0A0049324320496E6974206661690B
:104960006C65640D0A00000049324320496E697489
:1049700020737563636573730D0A000050574D20F3
:10498000496E6974206661696C65640D0A000000F7
:1049900050574D20496E6974207375636365737356
:1049A0000D0A00004C454420496E69742066616917
:1049B0006C65640D0A00000053746174654573747E
:1049C000696D61746F7220496E6974206661696CEB
:1049D00065640D0A0000000053656E736F725265C6
:1049E0006164657220496E6974206661696C6564F2
:1049F0000D0A0000436F6E74726F6C6C6572204913
:104A00006E6974206661696C65640D0A00000000BF
:104A1000436D644C697374656E657220496E697488
:104A2000206661696C65640D0A000000436D644C8A
:104A3000697374656E657220537461727420666167
:104A4000696C65640D0A0000447269766572734989
:104A50006E6974206661696C65640D0A000000006F
:104A600050726F64756374496E6974206661696C15
:104A700065640D0A0000000050726F647563745322
:104A800074617274206661696C65640D0A000000CF
:104A900010B5044600F0CCFE00202063A062E06266
:104AA00007486061204610BD10B5064C207820B93B
:104AB00001202070201DFFF7EBFF201D10BD00001E
:104AC0000AD7A33CE40D00200120704770B50D46C5
:104AD00084B00446686980F00040029004F1180632
:104AE00028690190E8680090AB686A68296883F0DB
:104AF000004382F0004281F00041204600F0B2FE07
:104B0000307B10B9204601F030F9306880F0004069
:104B1000B061307B10B9204601F027F970687061F0
:104B2000307B10B9204601F020F9B0683061286868
:104B30007062686880F000403062A86880F00040D1
:104B4000F06104B0012070BD0348017809B901216A
:104B50000170001D70470000B80E002038B501F04C
:104B600075F9044601F07EF90FF2600510B90FF2F5
:104B70006C0205E0204601F08BF930B90FF27002AB
:104B80002946FFF75BFE002032BD0FF27C0229466A
:104B90000220FFF753FE204601F08AFA0FF27C0252
:104BA00029460220FFF74AFE012032BD38B50C46E7
:104BB00001F04CF90546214601F077F904F10C01AA
:104BC000284601F0E1F9012032BD000053656E7303
:104BD0006F7252656164657200000000494D552096
:104BE000696E6974206661696C65640D0A00000075
:104BF0004661696C656420746F20737461727420FF
:104C0000494D550D0A000000494D552073746172DD
:104C10007420737563636573730D0A00494D5520E5
:104C200063616C6962726174652073756363657337
:104C3000730D0A000348017809B901210170001DB4
:104C400070470000A40E002080B501F025FB01F0A4
:104C50002AFB00B1012002BD10B501F01DFB044686
:104C600001F023FB78B90FF240020FF2300102206D
:104C7000FFF7E4FD4FF47A70FEF75AFB204601F08F
:104C800014FB0028F6D0012010BD10B50C4601F031
:104C900003FB2146BDE8104001F009BB436D644CA5
:104CA000697374656E65720057616974696E672017
:104CB000666F7220726563656976657220746F2015
:104CC00073746172740D0A000348017809B90121F7
:104CD0000170001D70470000C80E002080B500F074
:104CE0006FFD012002BD80B500F051FD012002BD25
:104CF0002DE9F04188B016460E9F0D469846304685
:104D000001F06AFB414601F067FB00F05EF801F03C
:104D1000D7FB0390314685F0004001F05DFB014672
:104D2000404601F0EFFB00F050F803AC01F0C8FB87
:104D300060603146284601F0E5FB0146404601F03F
:104D4000E1FB00F042F801F0BBFBA06031462846D1
:104D500001F042FB414601F03FFB00F036F801F064
:104D6000AFFBE060002054F82010002948BF00216C
:104D700004D4B1F57A7F03DD4FF47A7144F8201042
:104D8000401C0428EFDB6568A668E468039B0FF20B
:104D900050020FF240010294019600950220FFF7A5
:104DA0004DFD0399002000F01FFD2946012000F071
:104DB0001BFD3146022000F017FD2146032000F0C4
:104DC00013FD012008B0BDE8F0810146384601F02E
:104DD00099BB00004D6F746F724374726C000000D9
:104DE0006D6F746F7250574D3A2031202564202C1E
:104DF00020322025642C20332025642C20342025CB
:104E0000640D0A007047000038B504461020FBF717
:104E1000FBFF05001CD02046FBF7F6FF686020462C
:104E2000FBF7F2FFA8600120E8602C6068680028AA
:104E30001CBFA968002908D0214601F0A5FBA8687D
:104E4000214601F0A1FB284632BD284600F009F8B2
:104E50000FF2C8020FF2B8010020FFF7EFFC0020AC
:104E600032BD10B504000CD0606808B1FCF727F91A
:104E7000A06808B1FCF723F92046BDE81040FCF714
:104E80001EB910BD10B5002818BF002903D012B1FB
:104E90000368934205D20FF29C0300F031F8002022
:104EA00010BDC4684368022C06BF83680124022435
:104EB000C4601846FDF75CFF012010BD70B504000A
:104EC000084618BF0028154604D01DB1226829687D
:104ED000914205D20FF2880300F012F8002070BD55
:104EE000E1686668012908BFA6683146FDF740FF02
:104EF0002168304601F048FB20682860012070BD21
:104F00000FF248020FF208010020FFF797BC0000E3
:104F10005050427566666572000000005050204295
:104F2000756666657220496E6974206661696C6594
:104F3000640D0A0050696E67506F6E674275666651
:104F400065725F57726974650000000025732C203C
:104F5000696E70757420696E76616C69640D0A0003
:104F600050696E67506F6E674275666665725F5214
:104F70006561640030B585B00446002004900D469C
:104F80000120039004F14403606D029004F14C028F
:104F9000A06D019004F14801206D0090204600F0C2
:104FA00035FA4FF07E50206500206065A065606492
:104FB000A064E064636DA26D216DE565204600F09C
:104FC000E3FAE16D204600F0E6FA064A064920467B
:104FD00000F0FEFA0121204600F023FB204605B038
:104FE00030BD00000000FA420000FAC230B585B0C2
:104FF0000446002004900D460120039004F1440370
:10500000606D029004F14C02A06D019004F1480122
:10501000206D0090204600F0F9F9002020656065C1
:10502000A0656064A064E064636DA26D216DE565B8
:10503000204600F0A9FAE16D204600F0ACFA064ADD
:105040000649204600F0C4FA0121204600F0E9FAA2
:10505000204605B030BD00000000FA420000FAC250
:1050600030B5044687B06164A26400F0EFF90FF236
:10507000640528B90FF268022946FFF7DFFB14E048
:10508000E06CFFF71DFACDE90401A06CFFF718FAF8
:10509000CDE90201606CFFF713FACDE900010FF2D0
:1050A0005C0229460220FFF7C9FBE06C07B030BD67
:1050B00080B5016543658265FFE7436D016D00F0D2
:1050C00063FA012002BD80B5C16500F064FA0120D9
:1050D00002BD0000436E74726C6C657241747400A2
:1050E0006D4174745049442E436F6D70757465281A
:1050F00029206661696C65640D0A0000417474437F
:105100006F6E74726F6C6C65723A3A476574446581
:105110007369726564417474526174655365747027
:105120006F696E743A20736574706F696E743A209B
:1051300025662C206375722076616C3A2025662CDA
:10514000206D417474526174654F7574707574206C
:1051500025660D0A0000000010B54B4C23460322C3
:10516000032104F13C0001F012FA04F124030122AE
:10517000032104F1440001F00AFA04F13003012292
:10518000032104F14C0001F002FA012010BD2DE9C9
:10519000F0470D460446A8689046FFF791F93B4A50
:1051A0003B4BFFF7B5F9FFF701FB0646AE602F68F2
:1051B000D5F804903846394601F0EEF98246484663
:1051C000494601F0E9F9514601F09CF98146304623
:1051D000314601F0E1F9494601F094F9002101F06E
:1051E00047FA4FF0000902D801F054FA81463846D8
:1051F0004946254E01F088FA70624946686801F018
:1052000083FAB0624946A868224D01F07DFAF06247
:10521000404601F0F7FA0746404601F039FB0146E7
:10522000376071600020B060284601F0B5F9F06089
:10523000376100207061B061F06106F14C024FF0FF
:105240007E50306206F1440106F13C0001F070FB33
:10525000306BB16B01F058FA01F014FC6060294624
:10526000706B01F099F901F043FCA060C4F8008074
:105270000120BDE8F08780B5074901F08DF9BDE850
:105280000440064901F03EB94C0D00205A643BDF52
:105290004F8D2340000080BF000016440000C8432B
:1052A000841A71EB030604D26E40001BB14112193F
:1052B00073414FF4001C1CEB410F34BF7CEB4306E1
:1052C00084E00C0DA4EB1356362E7DDC012E43DC5E
:1052D00045EAC32343EA525312BFD20292025B084B
:1052E000240545EAC12141EA5051D2EBC020994141
:1052F00025D407D1B0FA80F610FA06F164D0002068
:10530000203608E0B1FA81F6B140C6F1200220FA59
:1053100002F21143B0404FEAF474B4EB465434F057
:1053200001064FEA74040AD8D6F50016760D04F08B
:105330000044F04061FA06F25040F1404840C00A93
:1053400040EA415021F0004128BF5FEA500550F18A
:10535000000044EBD12137E045EAC323DB0A45EAEC
:10536000C121C90AB6F120050EDD42EA0242120C43
:10537000C5F1200603FA06F6EB4042EA06056D4247
:10538000984161F100010DE062FA06F5F2405540E6
:1053900063FA06FC82EA0C02F3405A406D429041E7
:1053A00061EB030111F4801F05D1641E620502D078
:1053B0006D004041494121F48011430875F10043DB
:1053C00050F1000041EB0451F0BC70471CEB410F61
:1053D00015D223F0004352EA43060BD04FEA4C0C9F
:1053E000BCEB410F04D80C0D661E342EB7DDEBE785
:1053F000801A994150EA410608BF0021E4E708BF3E
:105400001CEB430F28BF6FF00001DDE738B500F05B
:1054100010F8642068612046089900F027F9079881
:10542000069B059A04990090204600F06EF82046ED
:1054300032BD044604F1200500206A602960AB609B
:1054400084F8400000214E4A2046C1E02DE9F8438F
:1054500000F14005297809B9002054E000F10C045E
:1054600060690768E0690068394600F0B5FF80466A
:10547000616A384600F0B0FF07466068414601F0B7
:105480008BF8216A01F03EF86D780646280008D1B5
:105490002068394601F080F80146304600F09CFF54
:1054A0000646D4F830904846314601F079FB38BFC3
:1054B0004E4605D3E16A304601F072FB38BF0E4616
:1054C000266225B12068414601F066F80546A068CD
:1054D000394601F061F80146206A00F07DFF294657
:1054E00001F010F802464846114601F059FB38BF5A
:1054F0004A4605D3E16A104601F052FB38BF0A461E
:10550000A06902600120BDE8F2832DE9F041044664
:105510000D462846002101F043FB16461F462DD3B9
:10552000304601F03DFB29D3384601F039FB25D345
:105530000698E061012818BF002084F8410025602A
:105540006660A760606B01F047FB0E4901F0DCF874
:1055500080463046414601F01FF80646384641462F
:1055600001F0D2F8A169012905D185F0004586F046
:10557000004680F0004060612661E560BDE8F08192
:1055800000007F4300007A4410B582B0C4690094E3
:10559000FFF7BBFF13BD70B50D46012D044616DBAA
:1055A000284601F00FFB0646606B01F015FB014633
:1055B000304601F0A9F806462069314600F0ECFFBC
:1055C00020613146606901F09FF86061656370BDDC
:1055D00010B503460846114601F04AF81BD924339A
:1055E00058619961187FB0B11C682168104601F0BC
:1055F000D7FA38BF206003D300F00EF838BF22601E
:105600009968986901F0CCFA01D2986010BD00F059
:1056100003F838BF9A6010BD5A690846114601F078
:10562000BFBA38B50129044609D194F840000125D4
:1056300010B9204600F005F884F8405031BD00252F
:10564000FAE780B50346586A0068D862186A0068AD
:10565000D96A1863D86B01F0A3FA01D2D86201BDF0
:105660009A6BFFF7DAFF38BFDA6201BD00F10C0276
:1056700090F8400000281CBFD06881420BD0106811
:1056800080F000401060506880F0004050609068EA
:1056900080F000409060D1607047000001207047AA
:1056A0000120704710B584B064240093029413461F
:1056B000069C01940A4601461748FCF753F840B18E
:1056C00003460FF2580213A10020FFF7B7F800209D
:1056D00000E0012004B010BD10B584B00C46642178
:1056E00002910093134606990191224601460A4809
:1056F000FCF7C4F8030008D0009406A10FF244029E
:105700000020FFF79BF8002000E0012004B010BD4E
:105710000000000049324300E00B002048414C5F8C
:105720004932435F4D656D5F5772697465206661EC
:10573000696C65642C20737461747573203D202539
:10574000640D0A0048414C5F4932435F4D656D5F0F
:1057500052656164206661696C65642C20737461B4
:10576000747573203D2025642C206D656D41646443
:1057700072203D2025640D0A000000002B480068BF
:10578000002141638163C16301640120704710B54A
:10579000264C2068002141638163C1630164204677
:1057A000FEF736F904212046FEF732F9082120469B
:1057B000FEF72EF92046BDE810400C21FEF728B96F
:1057C00010B51A4C00212046FEF726F90421204688
:1057D000FEF722F908212046FEF71EF92046BDE813
:1057E00010400C21FEF718B9B1F57A7FC8BF4FF40D
:1057F0007A7102DC002948BF0021032801F57A7183
:1058000012D8DFE800F002060A0E0848006841637B
:105810007047064800688163704704480068C163A8
:10582000704702480068016470470000280E00209D
:10583000DFF8181501604FF07E5141600021816052
:10584000C16001614FF06C514161002180F824106A
:10585000704729460E9800F09FBE8046304631467C
:1058600000F09ABE2DE9F04F04460846DFF8E074D8
:1058700093B015461E4600F033FA8146284600F0E4
:105880002FFA0546304600F02BFA07462669E068F5
:1058900002904946A06801904FF07C5A00F07CFECF
:1058A00080F00048029800F017FA00F02CFA8046C9
:1058B000304600F015FA00F026FA00F008FA0990D8
:1058C0004946D4F804B0584600F066FE8046029877
:1058D00000F006FA414600F015FE8046304600F022
:1058E000FBF900F010FA00F0F2F98046584600F09B
:1058F000F3F9009000F0E5F900F0F5F90090494661
:10590000304600F049FE00F0A6F900F0E0F9064646
:1059100000F0EDF90746019800F0DEF900F09EF97D
:105920000546029800F0BFF90146284600F054FDF4
:1059300000F0CDF91C9D1D9FDDF878A0814628461A
:105940000021FEF76FFC08D13846FEF76BFC04D14E
:105950005046FEF767FC00F0378100F0BCF9834643
:1059600000F0BDF9594600F0CDFD834600F0AEF9D8
:10597000594600F0C7FD00F0CAF98346284600F0FA
:105980009DF90546384600F099F90746504600F063
:1059900095F98246606800904FF0804B00F08EF9D8
:1059A00011905946A068029000F0F6FD10905946FB
:1059B000E068019000F0F0FD0F90594620690390D7
:1059C0004FF0824B00F0E8FD0E904FF081400099BF
:1059D00000F0E2FD05904FF08140029900F0DCFDFF
:1059E00008904FF0814000F04EF90790594600F0C2
:1059F00062F90D90594600F065F90C90009900F09D
:105A000056F91290029900F052F90199834600F07C
:105A10004EF90490039900F04AF90B90059900F0B3
:105A200039F9009029460F9800F0B6FD00F013F9FF
:105A30000090594600F024F900F00DF90090394625
:105A4000109800F0A9FD00F04EF906904FF081404B
:105A5000129900F0A1FD0A90089900F018F9009041
:105A6000FFF7F7FE00F03FF900900A9900F023F9E4
:105A700000F0F1F800903946119800F08DFD00F02B
:105A800032F9089900F0A8FC009059460D9800F0F2
:105A900083FD00F0E0F800900D9900F0FBF800F0B5
:105AA000DAF800905146089800F076FD00F0D3F83F
:105AB00005900A9900F006F900902946119800F027
:105AC0006BFD00F0C8F8009000F0E0F800F0C3F8BB
:105AD00000903946FFF7BEFE00F005F9079900F087
