:020000040800F2
:10000000D80500206997000821960008239600086B
:100010002596000827960008299600080000000091
:100020000000000000000000000000002B96000807
:100030002D960008000000002F9600083196000859
:100040008D970008919700089597000899970008E8
:100050009D970008A1970008A5970008A997000898
:10006000AD970008B1970008B5970008B997000848
:10007000BD9700083F960008C1970008C597000883
:10008000C9970008CD970008D1970008D5970008B8
:10009000D9970008DD970008E1970008E597000868
:1000A000E9970008ED970008F1970008F597000818
:1000B000F9970008FD9700080198000805980008C6
:1000C000099800080D980008119800081598000874
:1000D000199800081D980008219800084F960008FC
:1000E00025980008299800082D9800084FF4E07220
:1000F00010440268914203D343681A44914202D3E8
:1001000080680028F5D17047DFF85C07016891B975
:100110004FF4803181604FF4805141604FF0FF31E6
:10012000C16001610421DFF844274161C2F8BC11BC
:10013000DFF83C1701600120704701F1080313F05C
:10014000070305D001F10803C3F1080303F0070317
:100150001944D21A8161C26042F001034B6011441C
:1001600028234B60DFF800170969C16170472DE94A
:10017000F84F064601F1080010F0070008BF884656
:1001800007D001F10800C0F1080000F0070001EB02
:10019000000802F1080010F0070006D002F1080084
:1001A000C0F1080000F0070002441546A5EB080066
:1001B000A0EB030908EB030B43F00300C8F80400AD
:1001C000AB4528BF01F00CFA2879C00758BF01F0F1
:1001D00007FAB9F1100F38BF01F002FAB069854291
:1001E00009D1F0684844F060C6F818B040F001004A
:1001F000CBF8040070E1706985420BD1B0684844C7
:10020000B060C6F814B040F00101CBF804104BF810
:10021000000061E1686800F00301012940F0AF804F
:10022000C008C0000190C00820283BD2D5F808A023
:10023000EF680090BD4208BF01F0D2F9554508BFF4
:1002400001F0CEF968680099C008C000B0EBC10F9A
:1002500018BF01F0C5F9009806EBC00000F12801B5
:100260008A4508D031698A45C0F08480DAF80C10DC
:10027000A94240F07F80574506D1009A306801219D
:1002800091408843306077E02830874205D030695C
:1002900087426FD3B868A8426CD1CAF80C70C7F80F
:1002A00008A069E0EF68D5F818A0AF420CD0A868A4
:1002B0003169884223D3C168A94204BFB968A94201
:1002C0001DD1C760B8601CE005F11400076837B99C
:1002D00005F110000768A7B101E00846076807F1BB
:1002E00014010A68002A02BF07F110010A68002AF7
:1002F000F3D13169884202D30021016001E001F0AD
:100300006FF9BAF1000F37D0E86906EB80004FF4BF
:100310009871084401688D4208D10760A7B9EA695D
:100320007068012191408843706025E03069824502
:1003300008D3DAF81000A84214BFCAF81470CAF83B
:10034000107001E001F04CF9B7B13069874211D368
:10035000C7F818A0296929B1814226BF39618F6188
:1003600001F03EF9686938B13169884202D3786199
:10037000876101E001F034F901980544814468681F
:100380004008400068604FEAD90549F00100CBF809
:1003900004004BF80990202D23D206EBC50000F194
:1003A0002807BA46B9F1100F38BF01F019F93068C3
:1003B00020FA05F1C90704D40121A940084330609F
:1003C00006E0B868316988422CBF824601F008F91E
:1003D000C7F808B0CAF80CB0CBF808A0CBF80C707E
:1003E0007AE05FEA192108BF002023D0B1F5803FF1
:1003F00028BF1F201ED2A1F58070000C00F008005D
:100400008140A1F58052120C02F004029140A1F546
:1004100080431B0CC0F10E0003F00203801AC01AC7
:10042000994000EBD130C11D29FA01F202F001011F
:1004300001EB400006EB80014FF498721144CBF8B9
:100440001C000022CBF81420CBF81020726822FA8E
:1004500000F3DB0707D4012303FA00F010437060B8
:10046000C1F800B01DE009681F281DBF4008C0F199
:10047000190009FA00F0484600E011464A68D2081F
:10048000D2004A4514D0C20F01EB820202F11003E0
:1004900040001A68002AF0D1306983421AD3C3F8A9
:1004A00000B0CBF81810CBF80CB0CBF808B013E0C4
:1004B00032698868914228BF90420BD3C0F80CB0D3
:1004C000C1F808B0CBF80800CBF80C100020CBF82E
:1004D000180001E001F084F808F10800BDE8E68F9B
:1004E0002DE9FA4D0546DFF88003006882B008B9AF
:1004F000FFF70AFEDFF870030299806841182F3178
:10050000401E21EA00000299814280F0A9814FF447
:10051000D8716E18B16839B132688018824280F0A3
:100520009F818142C0F09C8101F06AF800281EBFC3
:100530000446D0F8008014F1010F00F0918130687A
:10054000716840448142306038BF01467160A869DB
:1005500080BB286908B1844200D22C610020F06180
:100560003461C6F8148005F12801BF48006868624C
:100570004FF0FF3028620020C960896001F1080255
:100580004A610A61801C10312028F5D3B7488542A2
:1005900003D1A8F1280221462AE055F8040CC0082E
:1005A00005EBC000A0F1080104EB0800401AA0F11F
:1005B00028021DE04FF4E0702918084600E080682A
:1005C000D0B1026843681A449442F8D1027B120702
:1005D00012D4AA6903689A420ED347683B449A42F0
:1005E0000AD208EB07014160E868A96908EB00023C
:1005F0002846FFF7A2FD1DE128698442084638BF5E
:100600002C6104EB080100E0806880B102688A4236
:10061000FAD1017B09070AD4046041684144416072
:100620002146029B284604B0BDE8F04D9FE5AF6926
:1006300039462846FFF75AFD4FF0000B0168406825
:1006400008440190273810F0070101990EBF0020DF
:10065000C0F1080000F0070008442F3807F110012E
:10066000884234BF00970090009804F1080100F11F
:10067000180A11F00701A8F1280005D004F10801BB
:10068000C1F1080101F00701401A2144A961E860A5
:1006900040F001024A600844282242607248006922
:1006A000E8610098083010F0070018BF00F098FFCC
:1006B00000991B2048604FF4E0712944B1E80C50C8
:1006C00000980830A0E80C503461C6F81480C6F8D1
:1006D0001CB000980830B061019801E00AF1040AEA
:1006E0000721CAF804100BF1010B0AF1080181423D
:1006F000F4D3BBF1020FB8BF00F072FF0098B8420C
:1007000000F09880C01B3918C4084A68520852008B
:100710004A6040F0010179603850202C20D205EB6E
:10072000C40101F12806B046102838BF00F058FF78
:10073000286820FA04F1C90704D40121A140084324
:10074000286006E0B068296988422CBF804600F026
:1007500047FFB760C8F80C70C7F80880FE6069E012
:10076000010A23D0B1F5803F28BF1F211ED2A1F579
:100770008072120C02F008029140A1F580531B0C0C
:1007800003F004039940A1F58044240CC2F10E0249
:1007900004F00204D21A121BA14002EBD131CA1D8F
:1007A00020FA02F303F0010202EB410105EB8102A2
:1007B0004FF498731A44F96100237B613B616B68C5
:1007C00023FA01F4E40705D4012088401843686047
:1007D00017601CE012681F291DBF4908C1F11901EB
:1007E00000FA01F1014600E01A465368DB08DB001D
:1007F000834210D0CB0F02EB830303F110044900B6
:100800002368002BF0D12869844211D32760BA6194
:10081000FF60BF600EE0296990688A4228BF884265
:1008200006D3C7609760B860FA600020B86101E045
:1008300000F0D6FEE8680299814211D2401AE860C1
:10084000A969029A0A44AA6140F001005060029826
:1008500040F00300486004B001F10800BDE8F08DED
:10086000002004B0BDE8F08D0C100020980B002093
:100870006859883C2DE9F84F0446002689465FEA0E
:100880001920C9F1000B08BF002123D0B0F5803F2B
:1008900028BF1F211ED2A0F58071090C01F00801AC
:1008A0008840A0F58052120C02F004029040A0F59E
:1008B00080431B0CC1F10E0103F00203891AC91A0F
:1008C000984001EBD030C11D29FA01F202F001017C
:1008D00001EB400104EB8100D0F8300118B31F296F
:1008E0000FBF4A464A08C2F1190209FA02F2002370
:1008F00000E052004568ED08ED00A5EB09055D45F7
:1009000003D25FEA050B06460BD04569D70F00EB13
:100910008700002D00691CBF85422B460028E8D1C6
:100920001846B8BBC6BB012088404000414208437E
:100930006168084000F05D8141420840401E010BA3
:1009400001F01001C840420902F00802D0408308BB
:1009500003F00403D840450805F002055118E840AB
:100960005918C0F3400729443944F840401804EBB3
:100970008000D0F830010DE008464168C908C90080
:10098000A1EB090159453CBF8B4606460169002988
:10099000F2D140690028F0D1002E00F02A81A06831
:1009A000A0EB0900834580F0248120698642C0F0D5
:1009B0001E817068C00809EB0B08C000404518BFD5
:1009C00000F00EFE06EB0905AE4280F01081F768DC
:1009D000D6F818A0B7420CD0B0682169884223D35A
:1009E000C168B14204BFB968B1421DD1C760B860E7
:1009F0001CE006F11400076837B906F1100007681B
:100A0000A7B101E00846076807F114010A68002A47
:100A100002BF07F110010A68002AF3D12169884258
:100A200002D30021016001E000F0DAFDBAF1000F0D
:100A300039D0F06904EB80004FF4987108440168E4
:100A40008E4209D10760380014D1F2696068012133
:100A500091408843606026E02069824508D3DAF837
:100A60001000B04214BFCAF81470CAF8107001E048
:100A700000F0B6FDBFB12069874212D3C7F818A0B5
:100A8000306930B12169884226BF3861876100F042
:100A9000A7FD706938B12169884202D37861876106
:100AA00001E000F09DFDBBF1100F09D248F00300FA
:100AB000706006EB0800416841F00101416095E07B
:100AC00049F0030070604BF0010068604FEADB0002
:100AD00045F80BB020281DD204EBC00101F1280716
:100AE000216821FA00F2D207BB4605D4012202FA9E
:100AF00000F00843206006E0B868216988422CBFF6
:100B0000834600F06DFDBD60CBF80C50C5F808B011
:100B1000EF606BE05FEA1B2023D0B0F5803F28BF79
:100B20001F201ED2A0F58071090C01F00801884039
:100B3000A0F58052120C02F004029040A0F5804310
:100B40001B0CC1F10E0103F00203891AC91A984067
:100B500001EBD030C11D2BFA01F202F0010101EBD3
:100B6000400004EB80014FF498721144E8610022C8
:100B70006A612A61626822FA00F3DB0706D4012366
:100B800003FA00F0104360600D601CE009681F2844
:100B90001DBF4008C0F119000BFA00F0584600E0F4
:100BA00011464A68D208D2005A4510D0C20F01EB54
:100BB000820202F1100340001A68002AF0D1206975
:100BC000834211D31D60A961ED60AD600EE0226922
:100BD0008868914228BF904206D3C5608D60A860A6
:100BE000E9600020A86101E000F0FAFC08E100F0F3
:100BF000F7FC02E12DE9F84F04468846606841425F
:100C00000840401E010B01F01001C840420902F0EB
:100C10000802D040830803F00403D840450805F0DB
:100C200002055118E8405918C0F3400629447118CC
:100C3000F040401804EB8000D0F830014168C9084A
:100C4000C9000646A1EB080A09E008464168C90840
:100C5000C900A1EB080151453CBF8A46064601691F
:100C60000029F2D140690028F0D120698642C0F005
:100C7000C2807068C00808EB0A09C000484518BF68
:100C800000F0AEFC06EB080B5E4580F0B480F76820
:100C9000B569B7420CD0B0682169884223D3C168D6
:100CA000B14204BFB968B1421DD1C760B8601CE051
:100CB00006F11400076837B906F110000768A7B1FC
:100CC00001E00846076807F114010A68002A02BF1C
:100CD00007F110010A68002AF3D12169884202D382
:100CE0000021016001E000F07BFC002D35D0F069AF
:100CF00004EB80004FF49871084401688E4209D1DA
:100D00000760380011D1F269606801219140884381
:100D1000606022E02069854205D32869B04214BF93
:100D20006F612F6101E000F05BFCB7B12069874281
:100D300011D3BD61306930B12169884226BF386165
:100D4000876100F04DFC706938B12169884202D397
:100D50007861876101E000F043FCBAF1100F09D21D
:100D600049F00300706006EB0900416841F00101A1
:100D700041603FE048F0030070604AF00100CBF8AA
:100D800004004BF80AA0D4F808804FEAD805202DBB
:100D900028BF00F025FCB8F1000F27D0D4F814903C
:100DA000009504EBC50000F128052F46B8F1100F9F
:100DB00038BF00F015FC2068009920FA01F2D10735
:100DC00005D4009A012191400843206006E0A868FC
:100DD000216988422CBF074600F002FCC5F8089044
:100DE000C7F80C90C9F80870C9F80C50C4F808A0EE
:100DF000C4F814B004E000F0F3FB0020BDE8F28F6B
:100E000006F10800BDE8F28F2DE9F04F83B00546EA
:100E1000AFF30080F52DDFF8C04780F002810B2D85
:100E200031BF102705F10B00C708FF002068FE083E
:100E3000F04010F0030F42D0C04300F001008619CB
:100E400004EBC60000F12808F700D8F808506868DD
:100E5000C008C000B84218BF00F0C2FBD5F8089027
:100E6000454508BF00F0BCFB4D4508BF00F0B8FB8E
:100E70006868C008C000B84218BF00F0B1FBC845A0
:100E800005D120680121B140884320600DE0206930
:100E9000814508D3D9F80C00A84204D1C8F80890BD
:100EA000C9F80C8001E000F09BFB47F0030068608C
:100EB000E8190835416841F001014160F9E0A16895
:100EC000B94280F0C080002800F0A280012505FA18
:100ED00006F149004A42B0401143084041420840EF
:100EE000401E010B01F01001C840420902F0080247
:100EF000D040830803F00403D840460806F00206F9
:100F00005118F0405918C0F340087118414420FAB4
:100F100008F000EB010804EBC80000F128094FEAD3
:100F2000C80AD9F808607068C008C000504518BFEA
:100F300000F056FBD6F808B04E4508BF00F050FB55
:100F40005E4508BF00F04CFB7068C008C00050450B
:100F500018BF00F045FBD94505D1206805FA08F116
:100F6000884320600DE02069834508D3DBF80C003E
:100F7000B04204D1C9F808B0CBF80C9001E000F001
:100F80002FFB47F003007060AAEB0708F0190190EF
:100F900048F0010001994860019840F80880A7686E
:100FA0004FEAD70ABAF1200F28BF00F019FB47B368
:100FB000CDF800A004EBCA00D4F8149000F1280A80
:100FC000D346102F38BF00F00BFB2068009920FAA1
:100FD00001F2D10705D4009905FA01F10843206018
:100FE00007E0DAF80800216988422CBF834600F048
:100FF000F7FACAF80890CBF80C90C9F808B0C9F80D
:101000000CA0C4F8088006F108050198606150E062
:101010006068C0B339462046FFF7ECFD050012D0EA
:1010200047E015F1400F28BF4FF0FF370BD205F115
:101030000B00C7086068FF0028B139462046FFF75B
:1010400019FC050035D1A068B8421CD3C11B6269E8
:1010500010290AD3D0196061A16041F001034360F7
:10106000415047F0030050600AE00021A160616137
:1010700040F0030151601044416841F001014160BA
:1010800002F1080515E0E06887420DD2C01BA16996
:10109000E060CA19A26140F00100506001F108054A
:1010A00047F00300486004E039462046FFF718FA8D
:1010B0000546AFF30080284603B0BDE8F08F00B9C5
:1010C00070472DE9F047A0F10804AFF30080DFF886
:1010D000085528698442C0F07982616801F00302F2
:1010E000012A00F07382CA084FEAC208CA0704EB5B
:1010F000080937D4226811F0030F00F069825142C9
:101100000C4484429044C0F0618269698C4200F0D2
:10111000D980D608202E70D2D4F80CA0A7685445E8
:1011200008BF00F05DFABC4208BF00F059FA6068E1
:10113000C008C000B0EBC60F18BF00F051FA05EBB5
:10114000C60000F128018F4205D029698F4251D392
:10115000F968A1424ED1BA453DD128680121B1407C
:10116000884328604C4580F03182D9F80400C107DB
:1011700040F12C82810700F17D81A969894540F009
:10118000B680E868AC614044E86040F0010161600D
:1011900069698C4202D100216961A960E9698142D3
:1011A00080F01682DFF83404006808B9FEF7ACFF5F
:1011B000A969002900F00C82E868292824BF284684
:1011C000FEF794FFE869E968884280F001824FF0F9
:1011D000FF30E861FCE12830824506D0286982456D
:1011E00008D3DAF80800A04204D1C7F80CA0CAF866
:1011F0000870B7E700F0F4F9B4E7E768A669A7421A
:101200000BD0A168814222D3C868A04204BFB8684D
:10121000A0421CD1CF60B9601BE004F114010F683B
:1012200037B904F110010F689FB101E011460F6852
:1012300007F114021368002B02BF07F110021368B4
:10124000002BF3D1814202D30020086001E000F0BE
:10125000C7F9002E86D0E06905EB80004FF4987145
:10126000084401688C4209D10760380011D1E26955
:101270006868012191408843686073E72869864265
:1012800005D33069A04214BF7761376101E000F0F7
:10129000A7F9002F3FF466AF28698742AAD3BE6141
:1012A000216929B1814226BF39618F6100F098F927
:1012B000606900283FF456AF296988429AD3786163
:1012C00087614FE799F8040000F0030003287FF4DA
:1012D00049AFC5F80880D9F8040040084000C9F8B3
:1012E000040048F00100606044F8088070E169691A
:1012F000894508D1A8686C614044A86040F00101AC
:101300006160205064E1C008C0004FEAD00ABAF121
:10131000200F804437D2D9F80C70D9F80860B9454D
:1013200008BF00F05DF9B14508BF00F059F9D9F8E0
:101330000400C008C000B0EBCA0F18BF00F050F99D
:1013400005EBCA0000F128018E4207D029698E42C0
:10135000C0F08380F168494540F07F80B74206D1F4
:101360002868012101FA0AF18843286077E02830D3
:10137000874205D0286987426FD3B86848456CD149
:10138000F760BE606BE0D9F80C70D9F818604F4573
:101390000DD0D9F808002969884223D3C16849458E
:1013A00004BFB96849451DD1C760B8601CE009F1A8
:1013B0001400076837B909F110000768A7B101E008
:1013C0000846076807F114010A68002A02BF07F1FE
:1013D00010010A68002AF3D12969884202D300214A
:1013E000016001E000F0FCF8002E38D0D9F81C00B4
:1013F00005EB80004FF498710844016889450AD1D3
:101400000760380012D1D9F81C206868012191408A
:101410008843686023E02869864205D330694845DF
:1014200014BF7761376101E000F0DAF8BFB12869D5
:10143000874212D3BE61D9F8101029B1814226BF6C
:1014400039618F6100F0CCF8D9F8140038B12969FE
:10145000884202D37861876101E000F0C1F848F06A
:101460000100606044F80880686984420BD1C5F8C7
:101470000880ADE040084000C9F8040048F00100D1
:10148000606044F808804FEAD807202F22D205EB8D
:10149000C70000F128094E46B8F1100F38BF00F020
:1014A0009FF8286820FA07F1C90704D40121B94040
:1014B0000843286007E0D9F80800296988422CBF52
:1014C000064600F08DF8C9F80840F460A660C4F83C
:1014D0000C907DE05FEA182008BF002123D0B0F512
:1014E000803F28BF1F211ED2A0F58071090C01F09A
:1014F00008018840A0F58052120C02F004029040CE
:10150000A0F580431B0CC1F10E0103F00203891A00
:10151000C91A984001EBD030C11D28FA01F202F03F
:10152000010101EB400105EB81004FF4987210447A
:10153000002262612261E1616A6822FA01F3DB073D
:1015400006D4012303FA01F11143696004601CE031
:1015500000681F291DBF4908C1F1190108FA01F1EE
:10156000414600E010464268D208D200424510D001
:10157000CA0F00EB820202F1100349001A68002A28
:10158000F0D129698B4211D31C60A061E460A46092
:101590000EE02A698168904228BF914206D3CC6050
:1015A0008460E060A1600020A06101E000F018F814
:1015B000286A401E28620BD1D5F8C80100E0806877
:1015C0000028FCD14FF0FF30286201E000F008F85D
:1015D000AFF30080BDE8F087980B00200C100020CE
:1015E000012000F023B88268521C8260426832B148
:1015F0000268531C036011704168491E41607047C6
:101600000749086808B1002070470648C008C000B4
:1016100008600549C908C900091A0160704700BF80
:1016200058100020DF050020D807002080B5AFF358
:101630000080024A11001820ABBEFBE72600020022
:101640002DE9F04F82460FF25860A5B015461E46B0
:10165000D0E90023CDE9122303AF00207960B862FE
:101660000DF1500900E045440020ADF8020012AB36
:101670004FF0FF3229460DF1020001F0AEF880462E
:10168000B8F1010F08DA2878B0F1010868EB080812
:101690006FEA08004FEAD078BDF8020025280CBF99
:1016A000A8F1010BC346BBF1010F0EDB2C4614F869
:1016B000011B7868D0470028786000F0F880B86A8D
:1016C000401CBBF1010BB862F1D1BDF80200252826
:1016D00007D1002038617861B861F86138627862BA
:1016E00005E00028BFD1B86AE2E240F0010015F839
:1016F000011F2029F9D023290DD02B2904D02D2911
:1017000006D030290AD00CE040F0020080B2EEE7AB
:1017100040F00400FAE740F00800F7E740F010005E
:10172000F4E72A290ED13168316051F8042B316079
:10173000002A3A6304D5514240F00400396380B274
:101740006D1C13E0002139630BE0396B6FF000432F
:10175000994205D001EB810302EB43013039396333
:101760006D1C2A78A2F130010A29EED329782E299E
:1017700003D04FF0FF31F9621FE015F8011F2A294D
:1017800007D1316831606D1C51F8042B3160FA6269
:1017900013E00021F9620BE0F96A6FF0004399420F
:1017A00005D001EB810302EB43013039F9626D1C76
:1017B0002A78A2F130010A29EED3B8860FF2E84068
:1017C000297801F01FF808B115F8010B8DF84200D7
:1017D0009DF84200682802BF29786829622005D058
:1017E0006C2804BF28786C2803D171208DF8420042
:1017F0006D1C14A8F86015F8014BB4F125002AD02F
:101800001C3800F0DB80001F022840F2D78013381C
:1018100000F0FB80093800F0D180801E00F0658167
:10182000401E00F03C81401E022840F2C780001F8D
:1018300000F03581401F00F09280401E00F0E580EE
:10184000401E37D0C01E0BD0801E00F0DE80C01EB0
:1018500000F0DB806CE125208DF85000012070E164
:101860009DF842006C283068306016D050F8048B28
:101870003060C7F80880FC6A002C04D5404600F0B0
:10188000CDFF044607E022460021404600F0E2FF7B
:1018900008B1A0EB08047C6154E150F8042B3060DF
:1018A00002A9504600F03EFA002840F14B814FF06B
:1018B000FF30FDE131683160002251F8040B3160E6
:1018C0004FF03C0E0021CDE9020114A8B860DDE91B
:1018D00002019142FC6808BF904201D1FA6AC2B18C
:1018E00000F00F033033DBB23A2BA8BF2733AEF141
:1018F00001020009A354964640EA0170090900223A
:10190000914208BF904204D0BA6804EB0E039A4299
:10191000E6D304EB0E01B960CEF13C00F96A7861C0
:10192000884207DA081AF8614FF6EF71B88E08405E
:10193000B88607E1002940F1058197F8341001F0DD
:101940001401102940F0FE80396B3A69891AFA694E
:10195000891A081A0128C0F2F580F861F2E09DF8B2
:10196000420062281AD0682806D06A280CD06C2859
:101970001CD0712808D019E03068306050F8041B82
:101980003060B86A0880DDE03068306050F8042BC1
:101990003060B86AC117C2E90001D3E03068306036
:1019A00050F8041B3060B86A0870CBE030683060D3
:1019B00050F8041B3060B86A0860C3E03068C01D8E
:1019C00020F007023260D2E9000108323260CDE92E
:1019D0000201002902D538692D2109E0B88E81075E
:1019E00002D538692B2103E0C00705D538692021CD
:1019F00009F80010401C386114A839690844B8601F
:101A0000214602A800F09AFB9CE09DF842006C2859
:101A10000DD0712818BF6A2809D13068C01D20F088
:101A200007023260D2E900010832326005E0316815
:101A3000316051F8040B31600021CDE902019DF8BD
:101A40004200682803D1DDE9020180B20BE0622880
:101A500003D1DDE90201C0B205E0742818BF7A287D
:101A600004D1DDE902010021CDE9020197F834003B
:101A7000000731D5DDE902230020834208BF8242FE
:101A80002AD044F02000782826D13869302109F87E
:101A90000010401C411C396109F800401CE09DF811
:101AA0004200314600F007F9CDE90201DDE90223E9
:101AB00000218B4202DA38692D2109E0B88E8107B6
:101AC00002D538692B2103E0C00705D538692021EC
:101AD00009F80010401C386114A839690844B8603E
:101AE000214602A800F0A4FA2CE09DF842006C28E0
:101AF00009D0012038613068306050F8041B306034
:101B00008DF850101EE03068306001AA50F8041BB8
:101B10003060ADF804100020ADF8060002A94FF0C7
:101B2000FF30F862504600F0FDF800280AD5BEE606
:101B300025208DF85000012038611CB189F8014042
:101B400002203861386B3969401AF969401A79699D
:101B5000401A396A401AB969401A796AA0EB01083B
:101B600097F83400400711D42020B8F1010F8DF808
:101B700000000BDB444601236A4602A9504600F0F0
:101B800007FE00287FF493AE641EF4D1D7F810B09E
:101B9000BBF1000F14AC0DD014F8011B7868D047CE
:101BA000002878603FF483AEB86A401CBBF1010B9B
:101BB000B862F1D130208DF80000FC69012C0ADBFD
:101BC00001236A4602A9504600F0E2FD00287FF496
:101BD0006EAE641EF4D1D7F814B0BC68BBF1000F30
:101BE0000DD014F8011B7868D047002878603FF4C6
:101BF0005EAEB86A401CBBF1010BB862F1D1302077
:101C00008DF800003C6A012C0ADB01236A4602A918
:101C1000504600F0BDFD00287FF449AE641EF4D1AB
:101C2000B8687969D7F818B04418BBF1000F0DD027
:101C300014F8011B7868D047002878603FF437AE6D
:101C4000B86A401CBBF1010BB862F1D130208DF8AD
:101C500000007C6A012C0ADB01236A4602A9504677
:101C600000F096FD00287FF422AE641EF4D197F8B0
:101C7000340040077FF5F8AC2020B8F1010F8DF853
:101C80000000FFF6F1AC01236A4602A9504600F0BD
:101C90007FFD00287FF40BAEB8F10108F3D1E3E437
:101CA0000000000000000000686A6C747A4C0000BC
:101CB00025B0BDE8F08F622826D068281DD06A289C
:101CC00008D06C2827D0712804D0742823D07A2813
:101CD0000CD020E00868C01D20F007000860D0E9A3
:101CE0000023083008601946104670470A680A60E9
:101CF00052F8040B0A60002170470A680A6052F823
:101D0000040B0A6000B20BE00A680A6052F8040B88
:101D10000A6040B204E00A680A6052F8040B0A60E4
:101D2000C11770472DE9F44F0D4694B0D5F830A097
:101D3000BAF1000F804648BF6FF0004A00F0B6FDD0
:101D4000696B401801900FF67820D0E90023CDE9A7
:101D5000022395F83800400702D40198412805D2A3
:101D600040200DF110090190002609E0FFF74CF822
:101D70005FEA0009F8D14FF0FF3056E1AAEB040A00
:101D8000BAF1010FC0F2CE801498018802AA0DF1B9
:101D9000010000F090FD0028044600F1DE80149858
:101DA000008810B9641E00F1D880A245C0F2BA8044
:101DB000686901992218914280F0A2806E634042C6
:101DC000296A401AA969401A696A401AE969401AE1
:101DD000A96A461A95F83800400710D42020012E31
:101DE0008DF800000BDB374601236A462946404642
:101DF00000F0CEFC002840F0B0807F1EF4D1D5F872
:101E000014B0BBF1000F4F460DD017F8011BA868A6
:101E1000C0470028A86000F0A080E86A401CBBF121
:101E2000010BE862F1D130208DF800002F6A012FFC
:101E30000ADB01236A462946404600F0A9FC002837
:101E400040F08B807F1EF4D1D5F818B0EF68BBF15D
:101E5000000F0CD017F8011BA868C0470028A86025
:101E60007BD0E86A401CBBF1010BE862F2D1302064
:101E70008DF800006F6A012F09DB01236A462946AD
:101E8000404600F085FC002867D17F1EF5D1E86848
:101E9000A969D5F81CB04718BBF1000F0CD017F892
:101EA000011BA868C0470028A86056D0E86A401CFB
:101EB000BBF1010BE862F2D130208DF80000AF6A6F
:101EC000012F09DB01236A462946404600F060FCE9
:101ED000002842D17F1EF5D195F8380040070DD576
:101EE0002020012E8DF8000008DB01236A462946D8
:101EF000404600F04DFC80BB761EF6D100266E6198
:101F0000224668690DF10101484400F0E1FC68696E
:101F1000201868611498801C1490801E0088002886
:101F20007FF42CAF686B6969401A296A401AA96965
:101F3000401A696A401AE969401AA96AA0EB010AC5
:101F400095F83800400710D4BAF1010F0DDB544664
:101F5000A8682021C047A86010B94FF0FF365DE0A7
:101F6000E86A401C641EE862F2D16B694A46294661
:101F7000404600F00DFC0028EFD12C6A012C0ADB52
:101F8000A8683021C0470028A860E6D0E86A401C55
:101F9000641EE862F4D1AB69EA682946404600F065
:101FA000F7FB0028D9D16C6A012C0ADBA868302124
:101FB000C0470028A860D0D0E86A401C641EE862D0
:101FC000F4D1E868A969EB6942182946404600F057
:101FD000DFFB0028C1D1AC6A012C0ADBA8683021E4
:101FE000C0470028A860B8D0E86A401C641EE862B8
:101FF000F4D195F8380040070ED5BAF1010F0BDB8C
:10200000A8682021C0470028A860A6D0E86A401C24
:10201000BAF1010AE862F3D16E616E6304A88145EA
:102020001CBF4846FFF74BF8304615B0BDE8F08FAF
:102030002DE9F343054608462F696F2808BF082499
:1020400005D041F02001782914BF0A2410243C2631
:10205000D5E90023642818BF69289046994606D11F
:1020600000218B4203DAD8F1000869EB490900200E
:10207000814508BF80450CD1286B50B9082C38D158
:1020800095F83800000734D530203B2687F83B0010
:102090002FE0701E00900646404649462246E31750
:1020A00000F052FC02F13000C0B23A2803DB9DF888
:1020B000041051390818B855494640462246E317DE
:1020C00000F042FC804689460020814508BF8045DB
:1020D00003D0E868B9198842DBD3082C09D195F8F8
:1020E0003800000705D5B85D302802D0761E3020B4
:1020F000B855B919E960C6F13C00296BA86188425E
:1021000008DA081A28624FF6EF71288F08402887EE
:10211000BDE8F38300290ED595F8381001F01401BD
:10212000102908D1696B6A69891A2A6A891A0E1AF4
:10213000012EA8BF2E62BDE8F38300002DE9F24F07
:1021400004468EB0D4E90001CDE9020104AF9DF848
:10215000380040F0200BBBF1610F0AD0206B002843
:1021600048BF062004D408BFBBF1670F01D101208E
:1021700020636168C1F30A5040F2FF7290421CD1A3
:10218000080304BF2068002809D10320A0619DF83E
:10219000380061381A2835D30FF2386108E003207F
:1021A000A0619DF8380061381A2828D30FF21C610D
:1021B000E068032200F08CFBBDE1012815DA20461F
:1021C00000F039FC012810DB00250020BBF1610F75
:1021D0001FD1E16830220A708A1CE2609DF8382025
:1021E000612A0CBF782258220FE0626840F2FE316B
:1021F00061F31E52451A62604FF0FF30E6E70FF2BE
:10220000C851D5E70FF2C851D2E74A706169891CFD
:10221000616110B90026002584E1BBF1610F40F037
:102220009880206BD4E900AB00284CBF2126461CC7
:10223000DDE902010022002300F020FC36B23ABFA3
:102240008BF00040CDE902A0CDE902AB06F1010818
:102250002D1FB8F1010F8DF810200DF1110736DB9D
:10226000DDE902010022002300F020FC2FD21C2116
:1022700002A800F033FCDDE9020100F0B5FCA8F192
:102280000708B8F1010F814609DB00F0D9FC0246CE
:102290000B46DDE9020100F0EBFCCDE90201F81D7F
:1022A000072105E009F00F0200F8012D4FEA291976
:1022B000B9F1010F01DB491EF4D5491E5CBF0022B4
:1022C00000F8012DF9D5C71DB8F1010FC8DA0DF1DD
:1022D0001100391AB142B8BF0E4636B230000DF1C6
:1022E00011072FD4884206DA04A901444978082945
:1022F000A8BF0F2100DA002104AA024400E0761EE4
:1023000012F80139401E8B42F9D00F2904D104A9DB
:1023100001444A78521C4A70002802D504AF761C4A
:102320002D1D36B2701E0DD439180A783032D2B253
:102330003A2A03DB9DF838303A3B9A18401E01F8E0
:102340000129F2D5206B002840F1EC80701E20633B
:10235000E8E0DDE902010022002300F08FFB3CBF32
:1023600081F00041CDE902012DB247F29750684358
:102370004B49DFF8309190FBF1F52DB2C5F1070A1A
:10238000BAF1010F90461CDBDDE902675FEACA7013
:1023900007D542464B463046394600F029FD0646F1
:1023A0000F464046494642464B464FEA6A0A00F00D
:1023B0001FFDBAF1000F80468946E7D1CDE90267DB
:1023C00024E0CAF1000A0026374F14E05FEACA7021
:1023D00007D542464B463046394600F009FD0646D1
:1023E0000F464046494642464B4600F001FD4FEA43
:1023F0006A0A80468946BAF1000FE7D1DDE9020199
:1024000032463B4600F0C6FDCDE90201BBF1660F46
:10241000216BDFF898900CBF05F10A0006204618E2
:10242000142EA8BF132630208DF810000DF11107CF
:10243000012E3DDBDDE9020100F0ECFB07F10801B4
:1024400004220A23B0FBF3F303EB8307A0EB47005E
:10245000303001F8010C0A20B3FBF0F000EB8007EC
:10246000A3EB47033033521E01F8023DE9D1083E89
:10247000012E01F10807DBDBDDE9020100F0CAFBF8
:1024800000F0E8FB02460B46DDE9020100F0F0FB3C
:1024900000224B4600F0ACFCCDE90201CAE700BFC8
:1024A000A0860100000024400000F03F84D797413F
:1024B0000DF11100381A0DF1110702E0401E6D1EDA
:1024C0007F1C39783029F9D0BBF1660F08BF691C31
:1024D00004D0BBF1650F0CBF01210021226B8E18C7
:1024E00036B2B042B8BF064636B231001AD4814285
:1024F00004DA785C3528A8BF392000DA30207A1851
:10250000521E00E0761E12F80139491E8342F9D0AE
:10251000392802D1785C401C7854002902D57F1EEE
:10252000761C6D1C2DB29DF83810009533B23A46DA
:10253000204600F003F80FB0BDE8F08F2DE9F0471A
:1025400086B006468A4690461D4600F06CFE012D78
:10255000406A376B90F8009002DA01250FF2782874
:102560004AF02000BDF93840662808BF641C12D02C
:10257000672878D114F1040F7BDBBC4279DA96F836
:102580003800641C000702D4BD42B8BF2F4624B2F5
:102590003F1B48BF002724B2F068B169012C23DA41
:1025A0004A1C30234354012F03DA96F83800000701
:1025B00003D5F06800F80290521CE742B8BF7C4295
:1025C00024B260427062E719AF42B261B8BF3D46C3
:1025D000F068B3692DB2F5612A464146184400F00F
:1025E00077F9781BB062BCE022469542084416DABF
:1025F0002A46414600F06CF9B1696918601B012F49
:10260000B161706203DA96F83800000705D5F0680A
:1026100000F80190F069401CF061B762A1E041460A
:1026200000F056F9B06920182D1B012F03DA96F837
:102630003810090703D5F16801F80090401CB0611B
:102640002DB2AF42B8BF3D46F068B3692DB22A46FD
:1026500008EB0401184400F03BF9B0692818B06198
:10266000781B70627DE0BAF1610F14D14FF0700AEF
:1026700016E0BD4204DA96F83810090758BF2F4615
:102680007F1E48BF0027BAF1670F14BF4FF0450AFD
:102690004FF0650A04E0BAF1410F08BF4FF0500A4D
:1026A000B169F368481CB061012F18F8012B5A5426
:1026B00003DA96F83810090717D5F168431CB3619F
:1026C00001F80090012F10DB6D1E2DB2AF42B8BF94
:1026D0003D46F0682DB22A464146184400F0F8F80D
:1026E000B0692818B061781B7062F068B169014464
:1026F000200081F800A004D42B20487001F10208CA
:1027000004E02D224A7001F102086442002502AF64
:1027100008E00A22684600F09FFD019807F8010BC7
:102720006D1C009C21B20129F3DA022D06DA4AF071
:102730002000652804BF302008F8010B4DB9302077
:1027400008F8010B07E06D1E02A8405D303008F864
:10275000010B012DF7DAF068B1690844A8EB00001D
:10276000F06196F8380000F0140010280DD170695F
:10277000B1690818716A0818F1690818B16A08186F
:10278000716B8842BCBF081A306206B0BDE8F087A2
:10279000F8B504460D4616461F46002077B116F8D8
:1027A000011BA868A047A86030B1E86A401CE86235
:1027B00000207F1EF3D1F2BD4FF0FF30F2BD0000CC
:1027C00000000000000000006E616E004E414E00EF
:1027D000696E6600494E46003000F8B504460D4665
:1027E00016461F4600F040FD3B463246294620462D
:1027F00001B0BDE8F04000F04EBD0268531C03601C
:10280000117070470278C9B28A421AB11CBF10F821
:10281000012FF9E718BF00207047000000F1010305
:10282000810704D010F8011B89B18107FAD1026831
:10283000B2F10131914311F0803F04BF50F8042FF1
:10284000F6E710F8011B11B110F8011BFBE7C01AE5
:1028500070470000C9B2830706D0521E22D310F879
:10286000013B9942F7D11FE0083A13D302F1040269
:1028700041EA012141EA014150F8043B121F21BF06
:102880004B40A3F1013C2CEA030C1CF0803FF3D039
:10289000C9B2001F083210F8013B521E28BF91EA4E
:1028A000030FF8D818BF0120401E704780B500F014
:1028B000DBFC012002BD70B504460D46164600F053
:1028C000D3FC324629462046BDE8704000F0D6BC15
:1028D00062B38B0708D0521E11F8013B00F8013B90
:1028E00000F024808B07F6D1830740F0208000BFE2
:1028F000103A07D330B4B1E83810103AA0E83810D5
:10290000F9D230BC530724BFB1E80810A0E8081082
:1029100044BF51F8043B40F8043BD20724BF31F8D0
:10292000022B20F8022B44BF0B7803707047083A43
:1029300007D3B1E80810083A40F8043B40F804CB4C
:10294000F7D25307E4E700001B4213D1094236D106
:102950002AB18446B0FBF2F002FB10C2704700F0CF
:10296000BDBCFCD30022002370470B0002000021F5
:1029700000207047904271EB030CF6D370B5B1FAAA
:1029800081F4B3FA83F52C1BA340C4F1200532FA7D
:1029900005F63343A2405FF00046E64002E05B08E4
:1029A0005FEA3202841A71EB030524BF20462946F0
:1029B0007641F4D302000B003000002170BD012AE3
:1029C000CFD970B5140C20D0B1FA81F4B2FA82F5E7
:1029D000C4F120046419B4F12006D6D3B2405FF0EC
:1029E0000044F440002502E052085FEA3303C61AAF
:1029F00071EB020E24BF3046714664416D41F3D342
:102A000002000B002000290070BD0C46B1FBF2F162
:102A100002FB11452D0445EA1045B5FBF2F402FB1B
:102A2000145580B240EA0545B5FBF2F002FB1052A6
:102A300040EA044070BD30B4436803F00042012115
:102A4000C3F313034360002B04BF0368002B08D1BA
:102A50000DE00368DD0F45EA440444605B00036059
:102A6000491E4468E302F4D5C4F31303436043688A
:102A70001A434260084630BC704700004FF4001C07
:102A80001CEB410F94BF1CEB430F09E041EA030C20
:102A900050EA4C0C52EA0C0C03D2994208BF904207
:102AA000704714BF8B428242704700004FF4001CF5
:102AB0001CEB410F94BF1CEB430F09E041EA030CF0
:102AC00050EA4C0C52EA0C0C03D28B4208BF8242F3
:102AD000704714BF994290427047000070B5044699
:102AE0000D466068C0F30A5040F2FF71884207D17A
:102AF0006068000304BF2068002817D0022070BD62
:102B000020B92046FFF797FF012866DA012D0FDB79
:102B100040F2FF71091A8D420AD36068002847BF4E
:102B200000202F4900202F49C4E90001012070BD79
:102B30004142A942616806DA6FF31E51401941EA29
:102B40000050606040E0401E63684519012205F1B5
:102B5000350062F31F53352801F00041636003D351
:102B600061600020206070BD002015F11F0F04DAA5
:102B7000206823600022203562606A4212D0401E25
:102B800025688041C2F12003C0439D4045EAD070D2
:102B900025686668D54006FA03F32B432360636813
:102BA000D340636062680A43B0F1004F626003D8AB
:102BB0000DD12078C0070AD52068401C206020680D
:102BC00028B96068401C60604FF0FF3070BD6068DD
:102BD000884204BF20680028F6D1002070BD00BFE5
:102BE0000000F0FF0000F07FF446400D40EAC120F5
:102BF000490006D200F014F8004248BF6FF00040D0
:102C0000604700F00DF84FF0004188428CBF084645
:102C100040426047400D40EAC120490080F00D80ED
:102C200040F00040490DA1F58061491C05D4D1F167
:102C30001F0154BFC840C01770474FF000007047D5
:102C4000010040F10980F446404200F005F851F0DF
:102C500000416047010000BF09D0B0FA80F1884010
:102C6000C91CC1F58461090501EBD02140057047FD
:102C7000F0B44FF0004591EA030F44BF6B4000F001
:102C800039BB00BF841A71EB030604D26E40001BEF
:102C9000B141121973414FF4001C1CEB410F34BFBA
:102CA0007CEB430684E00C0DA4EB1356362E7DDC42
:102CB000012E43DC45EAC32343EA525312BFD2023A
:102CC00092025B08240545EAC12141EA5051D2EB4A
:102CD000C020994125D407D1B0FA80F610FA06F148
:102CE00064D00020203608E0B1FA81F6B140C6F188
:102CF000200220FA02F21143B0404FEAF474B4EB20
:102D0000465434F001064FEA74040AD8D6F500168A
:102D1000760D04F00044F04061FA06F25040F140B4
:102D20004840C00A40EA415021F0004128BF5FEA14
:102D3000500550F1000044EBD12137E045EAC323B0
:102D4000DB0A45EAC121C90AB6F120050EDD42EAD7
:102D50000242120CC5F1200603FA06F6EB4042EAE5
:102D600006056D42984161F100010DE062FA06F539
:102D7000F240554063FA06FC82EA0C02F3405A40E6
:102D80006D42904161EB030111F4801F05D1641E77
:102D9000620502D06D004041494121F48011430891
:102DA00075F1004350F1000041EB0451F0BC704755
:102DB0001CEB410F15D223F0004352EA43060BD01F
:102DC0004FEA4C0CBCEB410F04D80C0D661E342EA0
:102DD000B7DDEBE7801A994150EA410608BF0021B0
:102DE000E4E708BF1CEB430F28BF6FF00001DDE7ED
:102DF000B0B581EA030C0CF0004C40F2FF7515EA07
:102E000011541DBF15EA1357AC42AF4239E0E41923
:102E100023EA455343F48013C90241F0004141EADB
:102E2000505EC7021100A7FB020200284FF000000D
:102E3000EEFB01204FF00001E3FB072118BF42F039
:102E40000102401800214941E3FB0E01A4F5806412
:102E50000F0302D252004041494154F101046CDD9C
:102E6000470872F1004250F1000051EB0451A1F506
:102E700080115CBF41EA0C01B0BD4CEA0551002055
:102E8000B0BD05EA1357AC4214BFAF4241E050EA6F
:102E9000410E1CBF52EA430E02E061460020B0BD65
:102EA00024423C441BD15FEA070EF6D0090302BF5F
:102EB00001460020AEF1140EB1FA81F7AEEB070423
:102EC00001FA07FE0C37C7F1200100FA07F7C840E6
:102ED0004EEA000E23EA455343F48013A2E733F091
:102EE0000043B3FA83F704BFB2FA82FE77440B3F84
:102EF000E41BB7F1200E2FBF02FA0EF3BB40C7F15F
:102F0000200E22FA0EFE38BF43EA0E03BA40641CBC
:102F100082E750EA410E14BF52EA430E6FF00001FF
:102F20004FF4001717EB430F8ABF194617EB410FF9
:102F3000B5E74CEA05510020B0BDD4F10104B4F16D
:102F400020070FDAC4F12007520828BF42F001021F
:102F500010FA07F501FA07F7E1BF2A43E0403843CA
:102F6000E1400FE0352C98DCC7F1200452EA400222
:102F700020FA07F218BF42F0010231FA07F0A1402F
:102F80000A43002172F1004250F1000051EB0C01A4
:102F9000B0BD00002DE9F04140F2FF7581EA030C5D
:102FA0000CF0004C15EA11541DBF15EA1357AC4242
:102FB000AF42E9E0BC41C1F31301C3F31303801A2C
:102FC000994143F4801304D2641E400049418018A3
:102FD0005941C90241EA5051B1FBF3F603FB161106
:102FE000A2FB0675D7EBC020A94102D2761E80183D
:102FF0005941C90241EA5051B1FBF3FE03FB1E11D6
:10300000A2FB0E75D7EBC020A94103D2AEF1010E91
:1030100080185941890241EA9051760546EA8E2E80
:10302000B1FBF3F603FB1611A2FB0675D7EB80206C
:10303000A94102D2761E80185941C90241EA505175
:103040004EEA060EB1FBF3F603FB1611A2FB067562
:10305000D7EBC020A94102D2761E80185941C9027F
:1030600041EA5051B1FBF3F703FB1711A2FB0735FF
:10307000D3EBC020A94167F100070CBF004247F025
:10308000010766F3D5274FEA1E31B80814F58064AE
:1030900014DDBD0775F1004250EB0E5051EB0451A9
:1030A00011F5801F5CBF41EA0C01BDE8F0814CF0D6
:1030B0007F6141F0E0410020BDE8F081BD076D086F
:1030C00040EA0E5041F48011D4F10104B4F120061D
:1030D0000ADAC4F120060200E04001FA06F3E140FA
:1030E0001843B24015430EE0342C14DCC6F1200422
:1030F00045EA40056D0820FA06F2154321FA06F06C
:10310000A1400D43002175F1004250F1000051EB48
:103110000C01BDE8F08100205FEA0C01BDE8F08100
:10312000CFB992185B41B3FA83F704BFB2FA82F6C3
:10313000BF190B3FB7F120062FBF02FA06F3BB40C1
:10314000C7F1200622FA06F638BF3343BA401CB155
:10315000E419641E2FE77F4231F00041B1FA81F497
:1031600004BFB0FA80F6A4190B3CB4F120062FBFBF
:1031700000FA06F1A140C4F1200620FA06F638BF95
:103180003143A0403C1B16E7AC421ABF05EA135777
:10319000AF4214E050EA41061CBF52EA4306BFE7C3
:1031A00050EA4107304661461CBF41EA0551BDE87F
:1031B000F08152EA430C08BFC143BDE8F081002012
:1031C0004FF4001616EB410F98BF16EB430F08BFE4
:1031D00016EB410F24BFC14305E016EB430F0CBFB4
:1031E00061464CEA0551BDE8F081000080B5134806
:1031F00000F0EAF80FF24C020FF244010160426263
:1032000041600FF24402826381600FF24402C160A8
:103210000161416181618162C16201634163C26395
:103220000164416401BD10B5044800F0CDF80446C6
:10323000206808B9FFF7DAFF204610BDDC00002047
:10324000000000002E00000066616C736500000045
:10325000747275650000000091FBF2F303FB12111C
:10326000C0E900317047000080B5DFF80C0000F0C5
:10327000ABF8806902BD00006C01002030B430B9A9
:103280000FF24800D0E90045C2E900451BE001709B
:10329000012030BC704730B431B90FF23800D0E9AA
:1032A0000045C3E900450EE01AB930BC6FF00100DB
:1032B000704708B10A7802800978481E804130BC06
:1032C000C043C00F7047002030BC704700000000B2
:1032D0000000000000000000000000007047000037
:1032E000F0B44FF0004591EA030C44BF6B40FFF788
:1032F000C9BC00BF841A71EB030603D2001BB141A5
:10330000121973414FF4001C1CEB410F34BF7CEBCE
:10331000430443E00C0DA4EB1356352E50DC45EA74
:10332000C323DB0A45EAC121C912B6F120050DDD30
:1033300063FA05F6EB4086EA0305124218BF45F032
:103340000105C01851F100010CD213E062FA06F534
:10335000F2405540F3415A40B340F3405A40801880
:10336000594107D349085FEA30005FEA350528BFB5
:1033700045F0010501F58011420875F1004250F158
:10338000000041EB0451F0BC4FF4001C1CEB410F5A
:1033900038BF70470020090D090570471CEB410F2D
:1033A00010D252EA43060BD0BCEB410F05D80C0DEE
:1033B000AB43661E342EB5DD02E0AB4380185941A5
:1033C000F0BC7047F0BC70477047000038B504008F
:1033D00014D004F13C05687818B92870204600F034
:1033E00026FC00F063F800F032FF6268DFF8081195
:1033F0008A4205D2DFF80421904205D2012032BD75
:10340000DFF8FC209042F9D32368DFF8F820B0FB06
:10341000F2F25A6063688B4206D34FF496735A43B4
:103420004FF47A73B2FBF3F22368521C1A62401E07
:1034300062688A4206D2510000F032F8042813D2A2
:10344000042011E0A16821B902EB420100F028F844
:1034500005E01921514300F023F840F480400105B4
:103460000CBF012040F400402168C861E069216A76
:103470000843216808602069E16808432168886082
:103480006069A16908432168C860206800F0D6F926
:10349000002068602020687000202063A87032BD82
:1034A000B0FBF1F0401CC0F30B00704724206870A3
:1034B0002068016849084900016070470095192398
:1034C0000122DFF81411704732462946204600F0E9
:1034D00052BB606A411C61622168096901707047D2
:1034E00040F48060086000200090206841690091ED
:1034F0008069009070470000A186010080841E0052
:1035000000093D0040420F002DE9FC4700F024F97E
:1035100000F064F852D1FFF7D1FF00F0AFF90028B6
:103520004CD13078012849D00120307000F05BF98F
:10353000212070704A464020B070414600207060E3
:103540000A9860620B98608500F040F80C9F019526
:10355000009700F0A3F978B17068042802D1002028
:10356000307024E00020307023E0606A421C626208
:103570000078086100F042F8208D80B12A46394673
:1035800000F0D2F970B9606A411C6162216800786C
:10359000086100F029F8EFD580B20028E5D100F0ED
:1035A00010F840B17068042803D100F06AF90120D6
:1035B00005E0032003E000F028F800E00220BDE869
:1035C000F6872A463946204600F0AEBA9748E062B0
:1035D000608D2085204670470200100004F13C06F3
:1035E0000546707820287047208D401E2085618D0B
:1035F000491E618521684A6952077047208D401E27
:103600002085608D401E608570472068016841F408
:1036100000710160202070700020B0703070704721
:103620002DE9FC4700F098F800F08BF87AD100966D
:10363000FFF745FF00F022F9002873D13878012800
:1036400070D00120387000F0CEF8222078704A4601
:103650004020B870414600F0EBF800F078F8608D3B
:103660002085019620460C9D009500F05FF940B141
:103670007868042802D10020387048E000203870B3
:1036800043E0208D010002D100F0A1F814E0216890
:10369000012802D100F08BF804E00228086804D168
:1036A00000F076F8016062B606E0FFF719FF03E06C
:1036B000FFF70FFFFFF7A2FF208D01002FD0042896
:1036C0001DD2012804D1FFF7FFFE0028F0D019E039
:1036D00000F031F809D10022414600F0CFF800286F
:1036E00013D172B600F08EF8E2E70022414600F0F6
:1036F000C5F8002809D100F0ABF830B9F2E7FFF7C0
:10370000E3FE30B17868202801D103200BE00120CE
:1037100009E000F02DF8CFD500F007F8CAE700F077
:1037200021F800E00220BDE8F687616A4A1C626267
:103730000069087070470228DFF8548100962B4614
:10374000704704F13C07064678782028704760856A
:103750003648E062704700000446884691469A4623
:1037600000F0A8BD202078700020B8703870704735
:10377000606A411C6162216809690170208D401EE8
:103780002085608D401E608520684169490770472B
:1037900040F40060086072B6002000902068416923
:1037A000009181690091016821F480617047086887
:1037B00020F48060086072B60020009020684169A3
:1037C000009181690091016841F400717047002007
:1037D000009020684169009181690091016841F47D
:1037E00000710160704720680168C90703D401684F
:1037F00041F00101016053462068016821F4006135
:10380000016070472068016841F400710160606ADE
:10381000411C6162216809690170208D401E20856C
:10382000608D401E608562B6704700000000FFFF9B
:10383000002078600A9860620B987047016841F038
:10384000010101607047016841F400710160704737
:103850002068016821F48061016072B62B46606ABD
:10386000411C616200222168096901704146208D76
:10387000401E2085608D401E60850096204600F029
:10388000CDB82068016841F4007101607047000004
:103890000400010020684169009170472DE9F84358
:1038A0000446894600F038F8089E099F1546984658
:1038B00000F09EF8FFF7E2FF30BB216809F0FE0040
:1038C000086100F0A3F818B1206C04281CD119E09D
:1038D00000903A46FFF7DEFF31468069009000F025
:1038E00023F850B9B8F1010F10D02168280A0861F7
:1038F0003A46314600F018F840B1206C042803D154
:10390000FFF7BFFF012005E0032003E02068EDB2D0
:1039100005610020BDE8F2832068016841F48071F0
:10392000016070472A4641462046E4E02DE9F04711
:10393000044682B020688946016841F480610160D4
:103940001646FFF7E9FFDDF828800B9D00951F461E
:10395000434600F04FF8FFF791FF002842D121685D
:10396000DFF888A009F0FE0008612B464246514668
:1039700000F052F8002830D100902A46FFF78AFF65
:10398000414680690090FFF7CFFF68B9012F05D04D
:103990002168300A0861FFF7C5FF28B92068F6B230
:1039A0000661FFF7BFFF28B1206C04281AD1FFF78A
:1039B00068FF15E000F022F8434600F01BF8FFF71F
:1039C0005DFF78B9216849F00100C0B208612B465B
:1039D0004246514600F020F828B1206C042801D15D
:1039E000012000E00320BDE8F6870000020001008E
:1039F0000097334600224FF001117047206801689C
:103A000041F4807101600095704700003B463246EA
:103A1000004901E00200010020462EE02DE9F041BE
:103A2000069E04460D4690461F462902090E206850
:103A3000012917D14069284080B2A9B2884217D025
:103A40000020404516D117F1010FEED027B100F04C
:103A500031FC801B8742E8D200F045F8817001708C
:103A6000032008E08069284080B2A9B28842E7D1EB
:103A70000120E6E70020BDE8F081F8B500F06DF820
:103A80001F462902090E2068012916D141692940E3
:103A900089B2AAB2914216D04169490515D5FFF7FE
:103AA000D2FE6FF480602168486104F13C0004217B
:103AB0004160002100F085F8F2BD8169294089B29A
:103AC000AAB29142E8D10020F2BD16F1010FD8D080
:103AD00026B100F0EFFBC01B8642D2D200F003F803
:103AE00001700320F2BD00202063202104F13C007E
:103AF00041700021704770B500F02FF820684069D0
:103B000000060FD4204600F063F808B1012070BD14
:103B100015F1010FF2D025B100F0CCFB801B8542DE
:103B2000ECD21EE0002070BD70B500F016F82068E1
:103B3000406940070FD4204600F04AF808B1012040
:103B400070BD15F1010FF2D025B100F0B3FB801B61
:103B50008542ECD205E0002070BD04460D461646B5
:103B6000704700F027F800212163202141700021D7
:103B70000170032070BD70B5FFF7EFFF2068416949
:103B8000490615D44169C90609D56FF01001416194
:103B900004F13C000021416000F013F870BD25B134
:103BA00000F088FB801B8542E8D200F003F8DCE7D8
:103BB000002070BD04F13C00416841F020014160EB
:103BC000704721632021417000210170012070475E
:103BD00001684A6952050DD56FF480624A6100F1AF
:103BE0003C0104224A6000220263202048700A70CF
:103BF0000120704700207047734881B0016841F090
:103C000001010160016801F001010091416841F08A
:103C100080514160406800F0805000906B4801681E
:103C200021F0E06141F00071016001B0704710B512
:103C300086B000F045F82068654988421AD162488C
:103C4000416841F400114160416801F4001100F045
:103C5000B0F84FF4407001901220029003200490BD
:103C60005C4800F02DFB5948016841F0E06141F0EB
:103C70000201016006B010BD81B00068564988425B
:103C800008D15148016841F400610160006800F406
:103C90000060009001B0704710B586B000F010F8D9
:103CA00020684D49884209D1474800F078F84FF420
:103CB000706000F06EF8494800F002FB06B010BDDD
:103CC000044601A8102100F0D3BB30B585B0FFF742
:103CD000F7FF2168424A3C48914217D141683F4C66
:103CE00041F400314160416801F40031009100F07D
:103CF00056F8042000F04DF8204600F0E1FA0820C4
:103D000000F041F8204600F0DBFA3AE0354A9142F3
:103D100037D141682F4D41F480214160416801F461
:103D2000802100F046F84FF4806000F032F8284619
:103D300000F0C6FA4FF4006000F025F8284600F0C5
:103D4000BFFA294D2948286000206860A8608020BB
:103D5000E8600020286168612020A8614FF40050CD
:103D6000E861284600F088FB08B100F04DFE65636D
:103D70006C6200220121272000F066FE272000F05F
:103D800080FE05B030BD019001A900200290039093
:103D90007047019002200290032004907047016850
:103DA00041F00401016001A9006800F004000090E6
:103DB00070470091016841F00801016001A90068A5
:103DC00000F0080000907047181002400400014005
:103DD00000540040000C0140002C0140000801404C
:103DE0000044004000480040200F00203000024006
:103DF0002DE9F8430446DFF87C542078C00747D506
:103E0000686800F00C00042807D0686800F00C0017
:103E100008280AD16868C00307D52868800337D509
:103E20006068002834D1012048E16068B0F5803F27
:103E300009D008B928680AE0B0F5A02F286806D193
:103E400040F480202860286840F4803005E020F4A9
:103E500080302860286820F480202860606858B18D
:103E600000F028FA07462868800311D400F022FAEF
:103E7000C01B6528F7D31EE100F01CFA074628682E
:103E8000800305D500F016FAC01B6528F7D312E1B0
:103E90002078DFF8EC63800718D5686810F00C0F05
:103EA00007D0686800F00C00082825D16868C003B6
:103EB00022D42868800702D520690128B3D1286858
:103EC000616920F0F80040EAC1002860207800070E
:103ED0003ED5A169DFF8AC03002964D0012101605F
:103EE00000F0E8F90746686A800722D400F0E2F99A
:103EF000C01B0328F7D3DEE0206968B101203060E1
:103F000000F0D8F9074628688007D8D400F0D2F925
:103F1000C01B0328F7D3CEE0306000F0CBF9074692
:103F200028688007D2D500F0C5F9C01B0328F7D355
:103F3000C1E0DFF844030068C0084FF47A71B0FBB9
:103F4000F1F0009000BF0098411E00280091F9D1C7
:103F5000207840076ED5E869C0004FF0000809D40A
:103F6000E86940F08050E8614FF00108E86900F02E
:103F700080500090DFF81093D9F80000C0051FD4DE
:103F8000D9F8000040F48070C9F8000000F092F900
:103F90000746D9F80000C00512D400F08BF9C01B09
:103FA0006528F6D387E0016000F084F90746686A67
:103FB0008007CDD500F07EF9C01B0328F7D37AE047
:103FC000E068012808D008B9286A09E00528286AAD
:103FD00006D140F004002862286A40F0010005E0A4
:103FE000400840002862286A20F00400286241F25C
:103FF0008939E06858B100F05DF90746286A800702
:1040000011D400F057F9C01B4845F7D353E000F036
:1040100051F90746286A800705D500F04BF9C01B07
:104020004845F7D347E0B8F1000F03D0E86920F026
:104030008050E861E06900283FD0696801F00C0118
:1040400008293FF4F0AE02282AD100F039F80746DB
:104050002868800105D500F02DF9C01B0328F7D38F
:1040600029E0206AB0F5803F05D16868A16820F496
:104070000030084368606868216A20F474100843BF
:10408000616A08436860012000F01BF80746286851
:10409000800112D400F00EF9C01B0328F7D30AE008
:1040A00000F00EF807462868800106D500F002F9F6
:1040B000C01B0328F7D3032000E00020BDE8F283F3
:1040C0000020306600F0F6B82DE9F8436F4E044644
:1040D0003068884600F00700404502D200F086F8BC
:1040E0005FD12068634F810712D5400703D57868F8
:1040F00040F4E06078602078000703D5786840F4E9
:10410000605078607868A16820F0F000084378601B
:104110002078C0073DD56068012802D1396889033D
:1041200003E00228396802D1890102D439E0890705
:1041300037D57968890840EA8100786041F2893989
:1041400000F0B8F80546606801280AD1786800F0E8
:104150000C0004281DD000F0ADF8401B4845F5D3F5
:1041600015E002280AD1786800F00C00082810D069
:1041700000F0A0F8401B4845F5D308E0786810F03F
:104180000C0F06D000F096F8401B4845F6D30320EC
:104190002AE0306800F00700804504D200F026F8DD
:1041A00001D0012020E02078400705D57868E1683B
:1041B00020F4E060084378602078000706D578682E
:1041C000216920F4605040EAC100786000F018F8DE
:1041D0007A682F49C2F30312895CC84026490860F7
:1041E000002000F079FC0020BDE8F2833068C008B0
:1041F00048EAC0003060306800F007004045704772
:1042000010B586B001A80FF298011022FEF770FBDE
:104210000FF29C001F490088ADF800000A6817489B
:1042200002F00C03082B10D101ABC2F38344D2037C
:104230001B5D08D50968C1F3404158431DF80110C2
:10424000B0FBF1F001E01448584306B010BD0A4835
:10425000104A006812681149C2F3022206E00648BB
:104260000C4A006812680D49C2F3C222895CC8403A
:104270007047000000100240D400002000127A00B5
:104280000000424280044242007000400020024090
:10429000109600080410024000093D0084970008B1
:1042A00002030405060708090A0B0C0D0E0F101077
:1042B0000102000001484068704700BFC8000020AC
:1042C0002DE9F8474FF0000E00225C4BDFF87081BB
:1042D000DFF870914FF00F0A012707FA02F60F6816
:1042E0003740B74240F09F804C685CB3012C1AD035
:1042F000022C1FD0032C31D0112C17D0122C1DD022
:10430000514DAC421CBF514DAC421BD0504DAC4244
:104310001CBF504DAC4215D04F4DAC421CBF4F4D51
:10432000AC420FD01CE0D1F80CE019E0CC6804F1ED
:10433000040E15E0CC6804F1080E11E0CC6804F11D
:104340000C0E0DE08C6814B94FF0040E08E0012C3F
:104350004FF0080E14BF4661066101E04FF0000EF9
:10436000FF2F02D88446940004E0A2F1080400F173
:10437000040CA400DCF800500AFA04F6B5430EFA67
:1043800004F42C43CCF800404C68E4004BD5D9F839
:10439000004044F00104C9F800404FEA920CD9F8FB
:1043A000005005F001040094940058F82C5004F0DB
:1043B0000C040AFA04F6B543294EB04208BF0026A1
:1043C0000ED0284EB04208BF012609D0264EB0427A
:1043D00008BF022604D0254EB0420CBF0326042697
:1043E00006FA04F42C4348F82C40FD434C68E403DF
:1043F0001C684CBF3C432C401C604C68A4035C68A8
:104400004CBF3C432C405C604C68E4029C684CBF51
:104410003C432C409C604C68A40247BFDC682743A7
:10442000DF682F40DF60521C102AFFF455AFBDE853
:10443000F18702B9090401617047000000040140DE
:104440000800014018100240000011100000121076
:104450000000211000002210000031100000321076
:1044600000080140000C0140001001400014014010
:10447000002200F051BB000010B508B9012010BDAA
:104480000268DFF8E8329B18142400F13801B3FB0E
:10449000F4F39B008B60DFF8D8324B60022380F886
:1044A0002130136844686FF30D132343846823435A
:1044B000C468234304692343446923438469234331
:1044C000C4692343136000220A60012180F821108F
:1044D00080F82020002010BDF8B500F032F801D19E
:1044E0000220F2BD00F033F820D1022005F12C06A5
:1044F00085F82100F460286807687F087F0007605E
:10450000284600F045F9286831680029016818BF7D
:1045100041F00E0106D121F0040101602868016814
:1045200041F00A01016000F006F802E085F8204041
:1045300002242046F2BD2868016841F001010160B3
:1045400070470546002495F8200001287047012097
:1045500085F8200095F821000128704701680A6855
:1045600022F00E020A600A68520852000A6000F146
:104570003C0101224B6809689A404A60012180F899
:104580002110002180F820100020704710B590F80D
:1045900021200024022A00F1340103D004204860C5
:1045A00001243FE00268136823F00E0313600268E1
:1045B00013685B085B0013600268DFF8B8319A4249
:1045C00008BF012222D0DFF8B0319A4208BF102282
:1045D0001CD0DFF8A8319A4208BF4FF4807215D082
:1045E000DFF89C319A4208BF4FF480520ED0DFF8BA
:1045F00094319A4208BF4FF4803207D0DFF88831F7
:104600009A420CBF4FF480124FF08072DFF87C3179
:104610001A60012280F8212080F8204009680A00F1
:1046200018BF8847204610BD2DE9F84F00F128013A
:1046300004274A69544BD2F800E00468534A2568BD
:104640008E69DFF84081DFF83891DFF830A1DFF8BC
:1046500028B1DFF820C1B7401EEA070F2DD06F0741
:104660002BD52568AD0603D4256825F00405256003
:104670000468644508BF042318D05C4508BF402384
:1046800014D0544508BF4FF480630FD04C4508BF89
:104690004FF480430AD0444508BF4FF4802305D02F
:1046A0009C420CBF4FF480034FF080631360496855
:1046B0000A0058D0BDE8F44F08470227B7401EEA69
:1046C000070F33D0AF0731D52568AD0606D425686E
:1046D00025F00A052560012480F82140046864451E
:1046E00008BF022318D05C4508BF202314D05445CE
:1046F00008BF4FF400730FD04C4508BF4FF4005370
:104700000AD0444508BF4FF4003305D09C420CBF8B
:104710004FF400134FF000731360002280F8202044
:1047200009680A001FD0BDE8F44F08470822B240CC
:104730001EEA020F17D02A0715D5226822F00E02B2
:10474000226001228B699A404B695A6001220A61FA
:1047500080F82120002280F8202089680A0002D0F9
:10476000BDE8F44F0847BDE8F18F0000F8FFFDBF3A
:1047700000000240080002401C00024030000240DD
:1047800044000240580002406C0002400400024015
:1047900030B5056C0124AC40C56B6C600468636087
:1047A0004068102802D1A260E16030BDA160E260E3
:1047B00030BD000070B586B000F0C8F900F082F896
:1047C00001A81021FFF754FE844C854E606840F02C
:1047D000100060600022606800F0100000904FF44C
:1047E0000051606840F0040060604FF4005560685C
:1047F00000F004000090606840F0080060606068AD
:1048000000F0080000903046FFF713FE01200290F0
:1048100001950020039001A9022004903046FFF783
:104820004FFD20686F4E40F001002060002220689C
:104830006D4C00F00100009001210D2000F004F902
:104840000D2000F01EF96948206066600020A0601D
:10485000E0604FF48040206100206061A061E06171
:1048600020622046FEF7B2FD00F057F804F19400F4
:104870005F49016046604FF480518160C5604FF42C
:10488000806101610C21416100218161C16100F001
:104890006FF9584860654FF4E130A0650020E0658D
:1048A000206660660C20A0660020E066206704F1A8
:1048B000540000F05DF94FF47A7000F05DFC00F0F8
:1048C00050FDFEE700B58FB005A82821FFF7D0FD09
:1048D00068461421FFF7CCFD0220059001200990C5
:1048E00010200A9002200C9000200D904FF46010D0
:1048F0000E9005A8FFF77CFA0F20009002210220FD
:104900000190002002904FF48060039000200490FA
:104910006846FFF7D9FB0FB000BD10B594B010A8E2
:104920001021FFF7A5FD0FF2E400334CD0E900237E
:10493000CDE9002302A81C21FFF79AFD09A81C213C
:10494000FFF796FD2D4820604FF420706060002036
:10495000A0604FF4FA70E060002020616061A06107
:10496000204600F0E1FE4FF48050109010A9204640
:1049700000F0AEFF204600F0EEFE00200090019017
:104980006946204601F051F9602002900022002083
:1049900003900490059006900790089000F030F87E
:1049A000042200F02DF8082200F02AF80C2200F072
:1049B00027F8002009900A900B900C900D9009A9FF
:1049C0004FF400500E9000200F90204601F004F9A3
:1049D0002046FFF761F914B010BD0000141002402A
:1049E00000100140A0860100700D0020005400401E
:1049F0000048004000440040A80F0020002C014067
:104A000002A9204600F0F8BE704700000000000038
:104A1000000000000901002806D5294A00F00F0017
:104A2000104400F8041C7047264A11547047264968
:104A30000A684FF6FF0300021A4000F4E0601043DA
:104A4000224A10430860704738B51F4B1B68C3F3F8
:104A50000223C3F10704052C28BF04241D1D072DC4
:104A600034BF0023DB1E012505FA04F4641E214037
:104A7000994005FA03F35B1E1A401143BDE8344028
:104A8000C8E7012100F01F029140114AFFE74009E9
:104A900042F82010704710B5401EB0F1807F01D35E
:104AA000012010BD0B4C60600F214FF0FF30FFF76D
:104AB000B1FF0020A06007202060002010BD000092
:104AC00018ED00E000E400E00CED00E00000FA0565
:104AD00000E100E010E000E038B50D4D2978044613
:104AE0004FF47A70B0FBF1F00A490968B1FBF0F0BD
:104AF000FFF7D1FF50B9102C08D2002221464FF009
:104B0000FF30FFF7A1FFAC60002032BD012032BDB5
:104B1000C8000020D400002000B500BF1300964656
:104B20009446103928BFA0E80C50FAD85FEA417CBF
:104B300028BF0CC048BF40F8042BC90728BF20F885
:104B4000022B48BF00F8012B00BD000080B50748CC
:104B5000016841F0100101600320FFF768FF0020A9
:104B6000FFF7BAFFFFF748F8002002BD002002401F
:104B700038B5050001D1012032BD05F13804607857
:104B800008B900F013F800F015F800F007F821F06C
:104B90002A01FFE7416100F017F832BD286801697A
:104BA00021F49041016128684169704720702846CE
:104BB000FFF78BB8242060702868C16821F4005189
:104BC000C160284600F065BA2868C16841F4005108
:104BD000C1600020606020206070A07000207047DD
:104BE0002DE9F843044604F138070D46787820286B
:104BF0001646984641D10DB1300001D101203DE06B
:104C00003878012839D001203870002078602120C0
:104C10007870FFF74FFBA6848146E68403E02168A5
:104C200015F8010B4860E08CC0B1E08C401EE084B8
:104C300000F026F80DD100F02AF8B8B928882168CC
:104C4000C0F3080048602069002814BF6D1CAD1C2B
:104C5000E9E700F01CF80028E1D007E0CDF800807B
:104C60004B460022402100F014F808B1032005E073
:104C7000202078700020387000E00220BDE8F28328
:104C80004B46A068CDF80080B0F5805F70470022E9
:104C9000802120466BE138B5044604F13805A87838
:104CA00020283CD109B1100001D1012032BD287863
:104CB000012834D001202870A162A28500206860FC
:104CC0002220A870636B0FF21D209862636B0FF2B5
:104CD0004D20D862636B0FF24D2018630020636B88
:104CE0005863134620680A46011D606BFFF7F4FB0A
:104CF0000020009020680168009141680091002127
:104D00002970C16841F48071C1602068416941F037
:104D1000010141612068416941F0400101E0022048
:104D200032BD4161002032BD38B5044604F1390579
:104D3000206841692A78212A09D1090607D500F09F
:104D40001EF808B1FFF70AFC204600F03BF9206886
:104D500041696A78222A09D1490607D500F015F879
:104D600008B1FFF7FBFB204600F035F9002032BD0B
:104D7000C160206841694908490041617047416943
:104D800021F080014161206B7047416921F04001B1
:104D90004161606B704738B5044623681868D9686C
:104DA0005A6910F00F0507D182065DD58A065BD5DA
:104DB0002046BDE8324023E1D50702D411F4907FAC
:104DC00052D0C30705D5CB0503D5E36B43F00103F0
:104DD000E363430705D5D30703D5E36B43F0020331
:104DE000E363830705D5D30703D5E36B43F00403DF
:104DF000E363030705D5D20703D5E26B42F008024F
:104E0000E263E26B002A6CD0800604D5880644BFBA
:104E1000204600F0F5F820684069E16B090701D4ED
:104E200040061BD5204600F0D6F8206841694906A7
:104E30000FD5FFF7AAFF60B10FF2B9114163606BA4
:104E4000FFF7A4FB00284CD0606B416BBDE83440F9
:104E500008472046BDE8324000F022BF204600F05F
:104E60001FFF0020E06331BD02062AD50A0628D5BF
:104E700094F83900212834D1A068B0F5805F206A09
:104E80000BD10088C0F30800586020690028206A10
:104E90000CBF801C401C206203E0411C2162007892
:104EA0005860E08C401EE08480B2D0B92068C168B0
:104EB00021F08001C1602068C16841F04001C160FB
:104EC00031BD40060DD548060BD5D86820F040000E
:104ED000D860202084F839002046BDE8324001F037
:104EE0001DB831BD0146486A09680968890613D4AE
:104EF0000021C1850168CA6822F48072CA60016815
:104F00004A69520852004A6101684A6922F0400227
:104F10004A61202180F83A1000F0CBBE406A00F0D0
:104F2000FEBF000038B5446A2068406904F13905C5
:104F30002978212906D1000604D50020E0842046E6
:104F400000F040F8206840696978222906D14006BF
:104F500004D50020E085204600F03DF8E06B40F0ED
:104F60001000E0632046BDE8324000F099BE2DE914
:104F7000F041069E04460D4690461F462068006894
:104F80002840A8420CBF01200020404517D116F14F
:104F9000010FF3D026B1FFF78DF9C01B8642EDD289
:104FA0002068C16821F4D071FFF7E2FE04F13800F7
:104FB00020214170817000210170032000E0002059
:104FC000BDE8F0810168CA6822F0C002CA602021F1
:104FD00080F8391070470168CA6822F49072CA607C
:104FE00001684A69520852004A61202180F83A104B
:104FF00070470000406A0021C185C18400F050BEA6
:1050000080B590F83A10222941D18168B1F5805FCE
:1050100012D10269816A002A0268526805D1C2F37E
:1050200008020A80816A891C04E002F0FF020A80FB
:10503000816A491C81620FE001690029816A04D1FB
:105040004A1C82620268526805E04A1C8262026859
:10505000526802F07F020A70C18D491EC18589B273
:1050600099B90168CA6822F02002CA600168CA685A
:1050700022F48072CA6001684A69520852004A618B
:10508000202180F83A1000F014FE002002BD02201A
:1050900002BD2DE9F0470446642520680169E268F5
:1050A00021F44051114301611926C168304A114071
:1050B000A26811432269114362691143C1604169C9
:1050C000A26921F44071114341612A4988420ED1FD
:1050D000FFF7C5F80746FFF7C2F88046FFF7BFF8AD
:1050E0008146FFF7BCF88246FFF7B9F80DE0FFF7FD
:1050F000AEF80746FFF7ABF88046FFF7A8F8814601
:10510000FFF7A5F88246FFF7A2F806FB08F36168EF
:105110008900B3FBF1F306FB07F206FB09F7B7FBC7
:10512000F1F7B7FBF5F705FB17331B013233B2FB81
:10513000F1F2B3FBF5F3B2FBF5F203F0F00303EB8E
:105140000212704306FB0AF3B0FBF1F0B3FBF1F37C
:10515000B0FBF5F005FB103000013230B0FBF5F08C
:10516000216800F00F0080188860BDE8F08700001B
:10517000F3E9FFFF0038014038B50446FFF79AF81D
:1051800014F1010F054602D0044800780419FFF716
:1051900091F8401BA042FAD331BD00BFC8000020E7
:1051A000DFF8D003017901B9704770B58168C26832
:1051B000491C9142816002DB0123143203700369B0
:1051C000994202DB01241433C4708469A14203DBD9
:1051D000012504F5FA7445704569A94202DB0126F0
:1051E0003235867041F28836B14206DB002181609B
:1051F000142214234FF4FA7432254561846103614B
:10520000C26070BD2DE9FC420246DB4B10680FF214
:105210009C360FF2A037D94CDFF86493194600F0A2
:105220007FFE08D100F0EBFE00F091F800F0C2FF25
:1052300022464B460BE000F0B0F9D24D18D100F0F9
:10524000DEFE00F084F800F0B5FF22462B46FEF7A4
:1052500047F800F071F800F06BF800F0D0FE00F0B5
:1052600071F801464FF41070304401F02BF858E00B
:105270005068194600F054FE10D100F0C0FE00F056
:105280006BF800F097FF22464B46FEF729F80446DC
:105290000D46CDE900450FF2303236E000F07DF9E1
:1052A00010D100F0ACFE00F057F800F083FF22466A
:1052B0002B46FEF715F804460D46CDE900450FF2E2
:1052C0001C3222E0D068B0490FF2243700F028FEEB
:1052D0000BD100F094FE4FF41071084401F00AF86D
:1052E00000F068FF22464B460BE0A84900F018FE8C
:1052F0001BD100F084FE00F02FF800F05BFF224687
:105300002B46FDF7EDFF00F017F800F011F800F064
:1053100076FE00F017F801464FF41070304400F0AC
:10532000D6FF0421002001F037F80120BDE8F68205
:105330003146022001F040B804460D46CDE9004553
:105340003A46704706462046294601F063B84FF4B6
:105350001071084400F0CABF4FF41071084400F007
:10536000C7BF2DE9F04F8DB001F09CF801000FF29E
:105370003C240BD10FF28C222146002001F01CF8B6
:105380004FF47A70FFF7F8FE01F08CF858B90FF27D
:10539000A022214601F010F80021002000F0DCFFDF
:1053A0000DB0BDE8F08F00F02AFE322100F038FE8B
:1053B0000FF2A42200F0ECF86E4D734E0FF2DC2ACF
:1053C000724FDFF8B4810FF2A42901202871042163
:1053D000002000F0E1FF2DE00FF2203221460020F6
:1053E00000F0EAFFE878C8B10020E87001F08CF91D
:1053F00005F11C0101F09AF901F086F9834600F0ED
:10540000FEFD0BF1280100F0A4FE01F07DF98346BA
:1054100000F0F5FD0BF1340100F09EFEA8780028A5
:105420001FBF0020A8706879002803D000F0E7FDB6
:1054300000F01DFE287838B10020287001F0B4F982
:1054400005F11C0101F0E2F968780028CAD00020BB
:10545000687001F01FFA08A901F047FA0128BBD0D3
:105460000B9800F0A7FECDE906010A9800F0A2FE15
:10547000CDE90401099800F09DFECDE902010898EC
:1054800000F098FECDE900014A462146FFF751FFA2
:105490006B79AA79180025D1089800F083F863D1B8
:1054A000099800F03DFD1DD10B98394600F038FDFC
:1054B0000CD100F076F815D101206871524600F049
:1054C00067F80121002000F047FF8BE7314600F02C
:1054D00027FD07D100F065F804D10120A8710FF273
:1054E000D012ECE7100018D0089800F05BF814D147
:1054F00000F052F811D10B98394600F011FD0CD193
:1055000000F04FF809D10020A87121460FF2B8121F
:10551000022000F051FF0021D4E72BB3089800F0DF
:1055200041F816D100F038F813D10B98314600F04D
:10553000F7FC0ED100F035F80BD10020687101F0B6
:10554000F3F901F0FBF90FF29C1200F021F80021B1
:10555000B8E700F054FD08A900F0F0FD00F04FFDA1
:105560000B9900F004FE3DE7002AFCD008A8FFF7E5
:1055700049FE37E794000020000080BF9A9999996E
:105580009999B9BF9999B93F0000B4C20000B442DB
:105590002146022000F010BF09984FF07E5100F024
:1055A000BFBC0A98414600F0BBBC00004D61696E6B
:1055B0004170700054756E655049443A204B70201C
:1055C000746F2025660D0A0054756E655049443A83
:1055D000204B6420746F2025660D0A0054756E659B
:1055E0005049443A204B6420746F20250D0A000076
:1055F00054756E655049443A204B6920746F2025DC
:10560000660D0A004D61696E417070206661696CBB
:10561000656420746F20696E6974206465766963BF
:10562000652C2074727920616761696E0D0A000033
:105630004D61696E417070206661696C65642074AB
:105640006F20696E6974206465766963652C2061DA
:10565000626F72740D0A00004D61696E41707020B6
:105660007374617274730D0A00000000436D643A34
:10567000206163632E78202566206163632E792084
:105680002566206163632E7A2025662C2079617758
:10569000526174652025660D0A0000004D61696E37
:1056A0004170703A2041726D656421212100000033
:1056B0004D61696E4170703A2054756E696E672055
:1056C00050494421212100004D61696E4170703ABA
:1056D00020457869742054756E696E67205049447E
:1056E000212121004D61696E4170703A2044697337
:1056F00041726D65642121210000000073436D64D7
:105700004C697374656E65722E476574436D6420D1
:1057100072657475726E73206661696C2C20736B90
:1057200069700D0A0000000038B5040001D10120A5
:1057300032BD00F01DF818B928702046FEF79CFA1B
:10574000FFE702206870211D206800F02AF901207F
:105750006870002032BD38B5040001D1012032BD8F
:1057600000F006F818B92870204601F083F9E8E740
:1057700004F13C056878704710B500F016F801E0B8
:1057800000F017F800F015FA2068DFF8681088427A
:1057900005D1DFF838110A6842F400420A60016856
:1057A00041F001010160002010BD04460122206883
:1057B00070470446080006D0042909D008290CD0F7
:1057C0000C290FD013E02068C26842F002020DE0FD
:1057D0002068C26842F0040208E02068C26842F013
:1057E000080203E02068C26842F01002C26020682C
:1057F00001227047002C014070B5064606F13C04BA
:105800000D462078012801D1022070BD00F058F823
:1058100032B1042A14D0082A24D00C2A32D042E013
:10582000306800F0EEF83068816941F0080100F05E
:1058300043F821F0040100F03FF82A6911430FE01A
:10584000306800F000F93068816941F4006100F0CF
:1058500033F821F4806100F02FF82A6941EA02212F
:10586000816120E0306800F01AF93068C16941F0C8
:10587000080100F01DF821F0040100F019F82A6970
:1058800011430FE0306800F035F93068C16941F428
:10589000006100F00DF821F4806100F009F82A6938
:1058A00041EA0221C161012060700020207070BDBA
:1058B000C1613068C1697047816130688169704732
:1058C000012020700220607070470000442C0140CD
:1058D00038B500F05BF801D1022032BDFFF7F0FFD0
:1058E000DFF85032286882681A4082600868002811
:1058F00037D0102837D0202837D0302837D040284C
:105900002BD050281ED0602820D070280BD0B0F5A6
:10591000805F03D0B0F5005F0CD02CE02868816870
:10592000C908C9000CE000F02CF82868816841F033
:10593000770105E000F025F82868816841F480418E
:10594000816018E000F019F8502111E0CA68496838
:10595000286800F00AF960210AE000F00EF8402102
:1059600006E0002104E0102102E0202100E03021C7
:10597000286800F00CF90FE00000CA684968286840
:10598000E2E0CB684A688968286808E1054605F1C5
:105990003C042078012870470120607000202070AE
:1059A00032BD70B5644A0368644C654D904218BFBF
:1059B000B0F1804F03D0A84218BFA04209D14E6871
:1059C00023F07003334390421CBFB0F1804FA842D4
:1059D00001D0A04203D1CC6823F4407323434C6927
:1059E00023F080032343036090428B68C3620B68FB
:1059F000836202D10969534A11600121416170BD7E
:105A0000000030B5026A5208520000F042F823F05C
:105A100073032B438D6824F002042C4300F067F8D5
:105A20000BD122F44072CD6824F008042C434D6958
:105A30002A438D6924F004042A4342608361496843
:105A40004163046230BD70B5026A22F0100200F0BA
:105A500020F823F4E64343EA05238D6824F020046C
:105A600044EA051400F043F80DD1CD688E6924F0A6
:105A7000800444EA05144D6922F44062354324F061
:105A8000400442EA8502426083614968816304629E
:105A900070BD0262046A426883690D68704770B520
:105AA000026A22F480720262046A4268C3690D6865
:105AB00023F073032B438D6824F4007444EA052417
:105AC00000F015F80DD1CD688E6924F4006444EA25
:105AD00005244D6922F44052354324F4806442EA9F
